{
  "contractName": "CertificateNFT",
  "abi": [
    {
      "inputs": [],
      "stateMutability": "nonpayable",
      "type": "constructor"
    },
    {
      "anonymous": false,
      "inputs": [
        {
          "indexed": true,
          "internalType": "address",
          "name": "owner",
          "type": "address"
        },
        {
          "indexed": true,
          "internalType": "address",
          "name": "approved",
          "type": "address"
        },
        {
          "indexed": true,
          "internalType": "uint256",
          "name": "tokenId",
          "type": "uint256"
        }
      ],
      "name": "Approval",
      "type": "event"
    },
    {
      "anonymous": false,
      "inputs": [
        {
          "indexed": true,
          "internalType": "address",
          "name": "owner",
          "type": "address"
        },
        {
          "indexed": true,
          "internalType": "address",
          "name": "operator",
          "type": "address"
        },
        {
          "indexed": false,
          "internalType": "bool",
          "name": "approved",
          "type": "bool"
        }
      ],
      "name": "ApprovalForAll",
      "type": "event"
    },
    {
      "anonymous": false,
      "inputs": [
        {
          "indexed": true,
          "internalType": "address",
          "name": "previousOwner",
          "type": "address"
        },
        {
          "indexed": true,
          "internalType": "address",
          "name": "newOwner",
          "type": "address"
        }
      ],
      "name": "OwnershipTransferred",
      "type": "event"
    },
    {
      "anonymous": false,
      "inputs": [
        {
          "indexed": true,
          "internalType": "address",
          "name": "from",
          "type": "address"
        },
        {
          "indexed": true,
          "internalType": "address",
          "name": "to",
          "type": "address"
        },
        {
          "indexed": true,
          "internalType": "uint256",
          "name": "tokenId",
          "type": "uint256"
        }
      ],
      "name": "Transfer",
      "type": "event"
    },
    {
      "inputs": [],
      "name": "_tokenIdCounter",
      "outputs": [
        {
          "internalType": "uint256",
          "name": "_value",
          "type": "uint256"
        }
      ],
      "stateMutability": "view",
      "type": "function",
      "constant": true
    },
    {
      "inputs": [
        {
          "internalType": "address",
          "name": "to",
          "type": "address"
        },
        {
          "internalType": "uint256",
          "name": "tokenId",
          "type": "uint256"
        }
      ],
      "name": "approve",
      "outputs": [],
      "stateMutability": "nonpayable",
      "type": "function"
    },
    {
      "inputs": [
        {
          "internalType": "address",
          "name": "owner",
          "type": "address"
        }
      ],
      "name": "balanceOf",
      "outputs": [
        {
          "internalType": "uint256",
          "name": "",
          "type": "uint256"
        }
      ],
      "stateMutability": "view",
      "type": "function",
      "constant": true
    },
    {
      "inputs": [
        {
          "internalType": "uint256",
          "name": "tokenId",
          "type": "uint256"
        }
      ],
      "name": "getApproved",
      "outputs": [
        {
          "internalType": "address",
          "name": "",
          "type": "address"
        }
      ],
      "stateMutability": "view",
      "type": "function",
      "constant": true
    },
    {
      "inputs": [
        {
          "internalType": "address",
          "name": "owner",
          "type": "address"
        },
        {
          "internalType": "address",
          "name": "operator",
          "type": "address"
        }
      ],
      "name": "isApprovedForAll",
      "outputs": [
        {
          "internalType": "bool",
          "name": "",
          "type": "bool"
        }
      ],
      "stateMutability": "view",
      "type": "function",
      "constant": true
    },
    {
      "inputs": [],
      "name": "name",
      "outputs": [
        {
          "internalType": "string",
          "name": "",
          "type": "string"
        }
      ],
      "stateMutability": "view",
      "type": "function",
      "constant": true
    },
    {
      "inputs": [],
      "name": "owner",
      "outputs": [
        {
          "internalType": "address",
          "name": "",
          "type": "address"
        }
      ],
      "stateMutability": "view",
      "type": "function",
      "constant": true
    },
    {
      "inputs": [
        {
          "internalType": "uint256",
          "name": "tokenId",
          "type": "uint256"
        }
      ],
      "name": "ownerOf",
      "outputs": [
        {
          "internalType": "address",
          "name": "",
          "type": "address"
        }
      ],
      "stateMutability": "view",
      "type": "function",
      "constant": true
    },
    {
      "inputs": [],
      "name": "renounceOwnership",
      "outputs": [],
      "stateMutability": "nonpayable",
      "type": "function"
    },
    {
      "inputs": [
        {
          "internalType": "address",
          "name": "from",
          "type": "address"
        },
        {
          "internalType": "address",
          "name": "to",
          "type": "address"
        },
        {
          "internalType": "uint256",
          "name": "tokenId",
          "type": "uint256"
        }
      ],
      "name": "safeTransferFrom",
      "outputs": [],
      "stateMutability": "nonpayable",
      "type": "function"
    },
    {
      "inputs": [
        {
          "internalType": "address",
          "name": "from",
          "type": "address"
        },
        {
          "internalType": "address",
          "name": "to",
          "type": "address"
        },
        {
          "internalType": "uint256",
          "name": "tokenId",
          "type": "uint256"
        },
        {
          "internalType": "bytes",
          "name": "data",
          "type": "bytes"
        }
      ],
      "name": "safeTransferFrom",
      "outputs": [],
      "stateMutability": "nonpayable",
      "type": "function"
    },
    {
      "inputs": [
        {
          "internalType": "address",
          "name": "operator",
          "type": "address"
        },
        {
          "internalType": "bool",
          "name": "approved",
          "type": "bool"
        }
      ],
      "name": "setApprovalForAll",
      "outputs": [],
      "stateMutability": "nonpayable",
      "type": "function"
    },
    {
      "inputs": [
        {
          "internalType": "bytes4",
          "name": "interfaceId",
          "type": "bytes4"
        }
      ],
      "name": "supportsInterface",
      "outputs": [
        {
          "internalType": "bool",
          "name": "",
          "type": "bool"
        }
      ],
      "stateMutability": "view",
      "type": "function",
      "constant": true
    },
    {
      "inputs": [],
      "name": "symbol",
      "outputs": [
        {
          "internalType": "string",
          "name": "",
          "type": "string"
        }
      ],
      "stateMutability": "view",
      "type": "function",
      "constant": true
    },
    {
      "inputs": [
        {
          "internalType": "uint256",
          "name": "tokenId",
          "type": "uint256"
        }
      ],
      "name": "tokenURI",
      "outputs": [
        {
          "internalType": "string",
          "name": "",
          "type": "string"
        }
      ],
      "stateMutability": "view",
      "type": "function",
      "constant": true
    },
    {
      "inputs": [
        {
          "internalType": "address",
          "name": "from",
          "type": "address"
        },
        {
          "internalType": "address",
          "name": "to",
          "type": "address"
        },
        {
          "internalType": "uint256",
          "name": "tokenId",
          "type": "uint256"
        }
      ],
      "name": "transferFrom",
      "outputs": [],
      "stateMutability": "nonpayable",
      "type": "function"
    },
    {
      "inputs": [
        {
          "internalType": "address",
          "name": "newOwner",
          "type": "address"
        }
      ],
      "name": "transferOwnership",
      "outputs": [],
      "stateMutability": "nonpayable",
      "type": "function"
    },
    {
      "inputs": [
        {
          "internalType": "address",
          "name": "fundRaiser",
          "type": "address"
        },
        {
          "internalType": "address",
          "name": "createdContract",
          "type": "address"
        },
        {
          "internalType": "uint256",
          "name": "certificateID",
          "type": "uint256"
        }
      ],
      "name": "createNFT",
      "outputs": [],
      "stateMutability": "nonpayable",
      "type": "function"
    },
    {
      "inputs": [
        {
          "internalType": "address",
          "name": "fundRaiser",
          "type": "address"
        },
        {
          "internalType": "address",
          "name": "donor",
          "type": "address"
        },
        {
          "internalType": "address",
          "name": "createdContract",
          "type": "address"
        },
        {
          "internalType": "uint256",
          "name": "certificateID",
          "type": "uint256"
        }
      ],
      "name": "transferNFT",
      "outputs": [],
      "stateMutability": "nonpayable",
      "type": "function"
    },
    {
      "inputs": [
        {
          "internalType": "address",
          "name": "seller",
          "type": "address"
        },
        {
          "internalType": "address",
          "name": "buyer",
          "type": "address"
        },
        {
          "internalType": "address",
          "name": "createdContract",
          "type": "address"
        },
        {
          "internalType": "uint256",
          "name": "token",
          "type": "uint256"
        }
      ],
      "name": "buyNFT",
      "outputs": [],
      "stateMutability": "nonpayable",
      "type": "function"
    }
  ],
  "bytecode": "0x60806040523480156200001157600080fd5b506040518060400160405280600e81526020017f43657274696669636174654e46540000000000000000000000000000000000008152506040518060400160405280600381526020017f434654000000000000000000000000000000000000000000000000000000000081525081600090816200008f919062000412565b508060019081620000a1919062000412565b505050620000c4620000b8620000ca60201b60201c565b620000d260201b60201c565b620004f9565b600033905090565b6000600660009054906101000a900473ffffffffffffffffffffffffffffffffffffffff16905081600660006101000a81548173ffffffffffffffffffffffffffffffffffffffff021916908373ffffffffffffffffffffffffffffffffffffffff1602179055508173ffffffffffffffffffffffffffffffffffffffff168173ffffffffffffffffffffffffffffffffffffffff167f8be0079c531659141344cd1fd0a4f28419497f9722a3daafe3b4186f6b6457e060405160405180910390a35050565b600081519050919050565b7f4e487b7100000000000000000000000000000000000000000000000000000000600052604160045260246000fd5b7f4e487b7100000000000000000000000000000000000000000000000000000000600052602260045260246000fd5b600060028204905060018216806200021a57607f821691505b60208210810362000230576200022f620001d2565b5b50919050565b60008190508160005260206000209050919050565b60006020601f8301049050919050565b600082821b905092915050565b6000600883026200029a7fffffffffffffffffffffffffffffffffffffffffffffffffffffffffffffffff826200025b565b620002a686836200025b565b95508019841693508086168417925050509392505050565b6000819050919050565b6000819050919050565b6000620002f3620002ed620002e784620002be565b620002c8565b620002be565b9050919050565b6000819050919050565b6200030f83620002d2565b620003276200031e82620002fa565b84845462000268565b825550505050565b600090565b6200033e6200032f565b6200034b81848462000304565b505050565b5b8181101562000373576200036760008262000334565b60018101905062000351565b5050565b601f821115620003c2576200038c8162000236565b62000397846200024b565b81016020851015620003a7578190505b620003bf620003b6856200024b565b83018262000350565b50505b505050565b600082821c905092915050565b6000620003e760001984600802620003c7565b1980831691505092915050565b6000620004028383620003d4565b9150826002028217905092915050565b6200041d8262000198565b67ffffffffffffffff811115620004395762000438620001a3565b5b62000445825462000201565b6200045282828562000377565b600060209050601f8311600181146200048a576000841562000475578287015190505b620004818582620003f4565b865550620004f1565b601f1984166200049a8662000236565b60005b82811015620004c4578489015182556001820191506020850194506020810190506200049d565b86831015620004e45784890151620004e0601f891682620003d4565b8355505b6001600288020188555050505b505050505050565b61298680620005096000396000f3fe608060405234801561001057600080fd5b506004361061012c5760003560e01c80638da5cb5b116100ad578063b88d4fde11610071578063b88d4fde1461031b578063c344509e14610337578063c87b56dd14610353578063e985e9c514610383578063f2fde38b146103b35761012c565b80638da5cb5b1461028b57806395d89b41146102a9578063a22cb465146102c7578063ab087085146102e3578063b0306671146102ff5761012c565b806342842e0e116100f457806342842e0e146101e75780636352211e1461020357806370a0823114610233578063715018a61461026357806384c4bd4b1461026d5761012c565b806301ffc9a71461013157806306fdde0314610161578063081812fc1461017f578063095ea7b3146101af57806323b872dd146101cb575b600080fd5b61014b60048036038101906101469190611b1d565b6103cf565b6040516101589190611b65565b60405180910390f35b6101696104b1565b6040516101769190611c10565b60405180910390f35b61019960048036038101906101949190611c68565b610543565b6040516101a69190611cd6565b60405180910390f35b6101c960048036038101906101c49190611d1d565b610589565b005b6101e560048036038101906101e09190611d5d565b6106a0565b005b61020160048036038101906101fc9190611d5d565b610700565b005b61021d60048036038101906102189190611c68565b610720565b60405161022a9190611cd6565b60405180910390f35b61024d60048036038101906102489190611db0565b6107a6565b60405161025a9190611dec565b60405180910390f35b61026b61085d565b005b610275610871565b6040516102829190611dec565b60405180910390f35b61029361087d565b6040516102a09190611cd6565b60405180910390f35b6102b16108a7565b6040516102be9190611c10565b60405180910390f35b6102e160048036038101906102dc9190611e33565b610939565b005b6102fd60048036038101906102f89190611e73565b61094f565b005b61031960048036038101906103149190611e73565b61096a565b005b6103356004803603810190610330919061200f565b61098f565b005b610351600480360381019061034c9190611d5d565b6109f1565b005b61036d60048036038101906103689190611c68565b610a0a565b60405161037a9190611c10565b60405180910390f35b61039d60048036038101906103989190612092565b610a72565b6040516103aa9190611b65565b60405180910390f35b6103cd60048036038101906103c89190611db0565b610b06565b005b60007f80ac58cd000000000000000000000000000000000000000000000000000000007bffffffffffffffffffffffffffffffffffffffffffffffffffffffff1916827bffffffffffffffffffffffffffffffffffffffffffffffffffffffff1916148061049a57507f5b5e139f000000000000000000000000000000000000000000000000000000007bffffffffffffffffffffffffffffffffffffffffffffffffffffffff1916827bffffffffffffffffffffffffffffffffffffffffffffffffffffffff1916145b806104aa57506104a982610b89565b5b9050919050565b6060600080546104c090612101565b80601f01602080910402602001604051908101604052809291908181526020018280546104ec90612101565b80156105395780601f1061050e57610100808354040283529160200191610539565b820191906000526020600020905b81548152906001019060200180831161051c57829003601f168201915b5050505050905090565b600061054e82610bf3565b6004600083815260200190815260200160002060009054906101000a900473ffffffffffffffffffffffffffffffffffffffff169050919050565b600061059482610720565b90508073ffffffffffffffffffffffffffffffffffffffff168373ffffffffffffffffffffffffffffffffffffffff1603610604576040517f08c379a00000000000000000000000000000000000000000000000000000000081526004016105fb906121a4565b60405180910390fd5b8073ffffffffffffffffffffffffffffffffffffffff16610623610c3e565b73ffffffffffffffffffffffffffffffffffffffff16148061065257506106518161064c610c3e565b610a72565b5b610691576040517f08c379a000000000000000000000000000000000000000000000000000000000815260040161068890612236565b60405180910390fd5b61069b8383610c46565b505050565b6106b16106ab610c3e565b82610cff565b6106f0576040517f08c379a00000000000000000000000000000000000000000000000000000000081526004016106e7906122c8565b60405180910390fd5b6106fb838383610d94565b505050565b61071b8383836040518060200160405280600081525061098f565b505050565b60008061072c8361108d565b9050600073ffffffffffffffffffffffffffffffffffffffff168173ffffffffffffffffffffffffffffffffffffffff160361079d576040517f08c379a000000000000000000000000000000000000000000000000000000000815260040161079490612334565b60405180910390fd5b80915050919050565b60008073ffffffffffffffffffffffffffffffffffffffff168273ffffffffffffffffffffffffffffffffffffffff1603610816576040517f08c379a000000000000000000000000000000000000000000000000000000000815260040161080d906123c6565b60405180910390fd5b600360008373ffffffffffffffffffffffffffffffffffffffff1673ffffffffffffffffffffffffffffffffffffffff168152602001908152602001600020549050919050565b6108656110ca565b61086f6000611148565b565b60078060000154905081565b6000600660009054906101000a900473ffffffffffffffffffffffffffffffffffffffff16905090565b6060600180546108b690612101565b80601f01602080910402602001604051908101604052809291908181526020018280546108e290612101565b801561092f5780601f106109045761010080835404028352916020019161092f565b820191906000526020600020905b81548152906001019060200180831161091257829003601f168201915b5050505050905090565b61094b610944610c3e565b838361120e565b5050565b61095a8484836106a0565b6109648282610c46565b50505050565b6109758484836106a0565b61097f8282610c46565b610989600761137a565b50505050565b6109a061099a610c3e565b83610cff565b6109df576040517f08c379a00000000000000000000000000000000000000000000000000000000081526004016109d6906122c8565b60405180910390fd5b6109eb84848484611390565b50505050565b6109fb83826113ec565b610a058282610c46565b505050565b6060610a1582610bf3565b6000610a1f61140a565b90506000815111610a3f5760405180602001604052806000815250610a6a565b80610a4984611421565b604051602001610a5a929190612422565b6040516020818303038152906040525b915050919050565b6000600560008473ffffffffffffffffffffffffffffffffffffffff1673ffffffffffffffffffffffffffffffffffffffff16815260200190815260200160002060008373ffffffffffffffffffffffffffffffffffffffff1673ffffffffffffffffffffffffffffffffffffffff16815260200190815260200160002060009054906101000a900460ff16905092915050565b610b0e6110ca565b600073ffffffffffffffffffffffffffffffffffffffff168173ffffffffffffffffffffffffffffffffffffffff1603610b7d576040517f08c379a0000000000000000000000000000000000000000000000000000000008152600401610b74906124b8565b60405180910390fd5b610b8681611148565b50565b60007f01ffc9a7000000000000000000000000000000000000000000000000000000007bffffffffffffffffffffffffffffffffffffffffffffffffffffffff1916827bffffffffffffffffffffffffffffffffffffffffffffffffffffffff1916149050919050565b610bfc816114ef565b610c3b576040517f08c379a0000000000000000000000000000000000000000000000000000000008152600401610c3290612334565b60405180910390fd5b50565b600033905090565b816004600083815260200190815260200160002060006101000a81548173ffffffffffffffffffffffffffffffffffffffff021916908373ffffffffffffffffffffffffffffffffffffffff160217905550808273ffffffffffffffffffffffffffffffffffffffff16610cb983610720565b73ffffffffffffffffffffffffffffffffffffffff167f8c5be1e5ebec7d5bd14f71427d1e84f3dd0314c0f7b2291e5b200ac8c7c3b92560405160405180910390a45050565b600080610d0b83610720565b90508073ffffffffffffffffffffffffffffffffffffffff168473ffffffffffffffffffffffffffffffffffffffff161480610d4d5750610d4c8185610a72565b5b80610d8b57508373ffffffffffffffffffffffffffffffffffffffff16610d7384610543565b73ffffffffffffffffffffffffffffffffffffffff16145b91505092915050565b8273ffffffffffffffffffffffffffffffffffffffff16610db482610720565b73ffffffffffffffffffffffffffffffffffffffff1614610e0a576040517f08c379a0000000000000000000000000000000000000000000000000000000008152600401610e019061254a565b60405180910390fd5b600073ffffffffffffffffffffffffffffffffffffffff168273ffffffffffffffffffffffffffffffffffffffff1603610e79576040517f08c379a0000000000000000000000000000000000000000000000000000000008152600401610e70906125dc565b60405180910390fd5b610e868383836001611530565b8273ffffffffffffffffffffffffffffffffffffffff16610ea682610720565b73ffffffffffffffffffffffffffffffffffffffff1614610efc576040517f08c379a0000000000000000000000000000000000000000000000000000000008152600401610ef39061254a565b60405180910390fd5b6004600082815260200190815260200160002060006101000a81549073ffffffffffffffffffffffffffffffffffffffff02191690556001600360008573ffffffffffffffffffffffffffffffffffffffff1673ffffffffffffffffffffffffffffffffffffffff168152602001908152602001600020600082825403925050819055506001600360008473ffffffffffffffffffffffffffffffffffffffff1673ffffffffffffffffffffffffffffffffffffffff16815260200190815260200160002060008282540192505081905550816002600083815260200190815260200160002060006101000a81548173ffffffffffffffffffffffffffffffffffffffff021916908373ffffffffffffffffffffffffffffffffffffffff160217905550808273ffffffffffffffffffffffffffffffffffffffff168473ffffffffffffffffffffffffffffffffffffffff167fddf252ad1be2c89b69c2b068fc378daa952ba7f163c4a11628f55a4df523b3ef60405160405180910390a46110888383836001611536565b505050565b60006002600083815260200190815260200160002060009054906101000a900473ffffffffffffffffffffffffffffffffffffffff169050919050565b6110d2610c3e565b73ffffffffffffffffffffffffffffffffffffffff166110f061087d565b73ffffffffffffffffffffffffffffffffffffffff1614611146576040517f08c379a000000000000000000000000000000000000000000000000000000000815260040161113d90612648565b60405180910390fd5b565b6000600660009054906101000a900473ffffffffffffffffffffffffffffffffffffffff16905081600660006101000a81548173ffffffffffffffffffffffffffffffffffffffff021916908373ffffffffffffffffffffffffffffffffffffffff1602179055508173ffffffffffffffffffffffffffffffffffffffff168173ffffffffffffffffffffffffffffffffffffffff167f8be0079c531659141344cd1fd0a4f28419497f9722a3daafe3b4186f6b6457e060405160405180910390a35050565b8173ffffffffffffffffffffffffffffffffffffffff168373ffffffffffffffffffffffffffffffffffffffff160361127c576040517f08c379a0000000000000000000000000000000000000000000000000000000008152600401611273906126b4565b60405180910390fd5b80600560008573ffffffffffffffffffffffffffffffffffffffff1673ffffffffffffffffffffffffffffffffffffffff16815260200190815260200160002060008473ffffffffffffffffffffffffffffffffffffffff1673ffffffffffffffffffffffffffffffffffffffff16815260200190815260200160002060006101000a81548160ff0219169083151502179055508173ffffffffffffffffffffffffffffffffffffffff168373ffffffffffffffffffffffffffffffffffffffff167f17307eab39ab6107e8899845ad3d59bd9653f200f220920489ca2b5937696c318360405161136d9190611b65565b60405180910390a3505050565b6001816000016000828254019250508190555050565b61139b848484610d94565b6113a78484848461153c565b6113e6576040517f08c379a00000000000000000000000000000000000000000000000000000000081526004016113dd90612746565b60405180910390fd5b50505050565b6114068282604051806020016040528060008152506116c3565b5050565b606060405180602001604052806000815250905090565b6060600060016114308461171e565b01905060008167ffffffffffffffff81111561144f5761144e611ee4565b5b6040519080825280601f01601f1916602001820160405280156114815781602001600182028036833780820191505090505b509050600082602001820190505b6001156114e4578080600190039150507f3031323334353637383961626364656600000000000000000000000000000000600a86061a8153600a85816114d8576114d7612766565b5b0494506000850361148f575b819350505050919050565b60008073ffffffffffffffffffffffffffffffffffffffff166115118361108d565b73ffffffffffffffffffffffffffffffffffffffff1614159050919050565b50505050565b50505050565b600061155d8473ffffffffffffffffffffffffffffffffffffffff16611871565b156116b6578373ffffffffffffffffffffffffffffffffffffffff1663150b7a02611586610c3e565b8786866040518563ffffffff1660e01b81526004016115a894939291906127ea565b6020604051808303816000875af19250505080156115e457506040513d601f19601f820116820180604052508101906115e1919061284b565b60015b611666573d8060008114611614576040519150601f19603f3d011682016040523d82523d6000602084013e611619565b606091505b50600081510361165e576040517f08c379a000000000000000000000000000000000000000000000000000000000815260040161165590612746565b60405180910390fd5b805181602001fd5b63150b7a0260e01b7bffffffffffffffffffffffffffffffffffffffffffffffffffffffff1916817bffffffffffffffffffffffffffffffffffffffffffffffffffffffff1916149150506116bb565b600190505b949350505050565b6116cd8383611894565b6116da600084848461153c565b611719576040517f08c379a000000000000000000000000000000000000000000000000000000000815260040161171090612746565b60405180910390fd5b505050565b600080600090507a184f03e93ff9f4daa797ed6e38ed64bf6a1f010000000000000000831061177c577a184f03e93ff9f4daa797ed6e38ed64bf6a1f010000000000000000838161177257611771612766565b5b0492506040810190505b6d04ee2d6d415b85acef810000000083106117b9576d04ee2d6d415b85acef810000000083816117af576117ae612766565b5b0492506020810190505b662386f26fc1000083106117e857662386f26fc1000083816117de576117dd612766565b5b0492506010810190505b6305f5e1008310611811576305f5e100838161180757611806612766565b5b0492506008810190505b612710831061183657612710838161182c5761182b612766565b5b0492506004810190505b60648310611859576064838161184f5761184e612766565b5b0492506002810190505b600a8310611868576001810190505b80915050919050565b6000808273ffffffffffffffffffffffffffffffffffffffff163b119050919050565b600073ffffffffffffffffffffffffffffffffffffffff168273ffffffffffffffffffffffffffffffffffffffff1603611903576040517f08c379a00000000000000000000000000000000000000000000000000000000081526004016118fa906128c4565b60405180910390fd5b61190c816114ef565b1561194c576040517f08c379a000000000000000000000000000000000000000000000000000000000815260040161194390612930565b60405180910390fd5b61195a600083836001611530565b611963816114ef565b156119a3576040517f08c379a000000000000000000000000000000000000000000000000000000000815260040161199a90612930565b60405180910390fd5b6001600360008473ffffffffffffffffffffffffffffffffffffffff1673ffffffffffffffffffffffffffffffffffffffff16815260200190815260200160002060008282540192505081905550816002600083815260200190815260200160002060006101000a81548173ffffffffffffffffffffffffffffffffffffffff021916908373ffffffffffffffffffffffffffffffffffffffff160217905550808273ffffffffffffffffffffffffffffffffffffffff16600073ffffffffffffffffffffffffffffffffffffffff167fddf252ad1be2c89b69c2b068fc378daa952ba7f163c4a11628f55a4df523b3ef60405160405180910390a4611aad600083836001611536565b5050565b6000604051905090565b600080fd5b600080fd5b60007fffffffff0000000000000000000000000000000000000000000000000000000082169050919050565b611afa81611ac5565b8114611b0557600080fd5b50565b600081359050611b1781611af1565b92915050565b600060208284031215611b3357611b32611abb565b5b6000611b4184828501611b08565b91505092915050565b60008115159050919050565b611b5f81611b4a565b82525050565b6000602082019050611b7a6000830184611b56565b92915050565b600081519050919050565b600082825260208201905092915050565b60005b83811015611bba578082015181840152602081019050611b9f565b60008484015250505050565b6000601f19601f8301169050919050565b6000611be282611b80565b611bec8185611b8b565b9350611bfc818560208601611b9c565b611c0581611bc6565b840191505092915050565b60006020820190508181036000830152611c2a8184611bd7565b905092915050565b6000819050919050565b611c4581611c32565b8114611c5057600080fd5b50565b600081359050611c6281611c3c565b92915050565b600060208284031215611c7e57611c7d611abb565b5b6000611c8c84828501611c53565b91505092915050565b600073ffffffffffffffffffffffffffffffffffffffff82169050919050565b6000611cc082611c95565b9050919050565b611cd081611cb5565b82525050565b6000602082019050611ceb6000830184611cc7565b92915050565b611cfa81611cb5565b8114611d0557600080fd5b50565b600081359050611d1781611cf1565b92915050565b60008060408385031215611d3457611d33611abb565b5b6000611d4285828601611d08565b9250506020611d5385828601611c53565b9150509250929050565b600080600060608486031215611d7657611d75611abb565b5b6000611d8486828701611d08565b9350506020611d9586828701611d08565b9250506040611da686828701611c53565b9150509250925092565b600060208284031215611dc657611dc5611abb565b5b6000611dd484828501611d08565b91505092915050565b611de681611c32565b82525050565b6000602082019050611e016000830184611ddd565b92915050565b611e1081611b4a565b8114611e1b57600080fd5b50565b600081359050611e2d81611e07565b92915050565b60008060408385031215611e4a57611e49611abb565b5b6000611e5885828601611d08565b9250506020611e6985828601611e1e565b9150509250929050565b60008060008060808587031215611e8d57611e8c611abb565b5b6000611e9b87828801611d08565b9450506020611eac87828801611d08565b9350506040611ebd87828801611d08565b9250506060611ece87828801611c53565b91505092959194509250565b600080fd5b600080fd5b7f4e487b7100000000000000000000000000000000000000000000000000000000600052604160045260246000fd5b611f1c82611bc6565b810181811067ffffffffffffffff82111715611f3b57611f3a611ee4565b5b80604052505050565b6000611f4e611ab1565b9050611f5a8282611f13565b919050565b600067ffffffffffffffff821115611f7a57611f79611ee4565b5b611f8382611bc6565b9050602081019050919050565b82818337600083830152505050565b6000611fb2611fad84611f5f565b611f44565b905082815260208101848484011115611fce57611fcd611edf565b5b611fd9848285611f90565b509392505050565b600082601f830112611ff657611ff5611eda565b5b8135612006848260208601611f9f565b91505092915050565b6000806000806080858703121561202957612028611abb565b5b600061203787828801611d08565b945050602061204887828801611d08565b935050604061205987828801611c53565b925050606085013567ffffffffffffffff81111561207a57612079611ac0565b5b61208687828801611fe1565b91505092959194509250565b600080604083850312156120a9576120a8611abb565b5b60006120b785828601611d08565b92505060206120c885828601611d08565b9150509250929050565b7f4e487b7100000000000000000000000000000000000000000000000000000000600052602260045260246000fd5b6000600282049050600182168061211957607f821691505b60208210810361212c5761212b6120d2565b5b50919050565b7f4552433732313a20617070726f76616c20746f2063757272656e74206f776e6560008201527f7200000000000000000000000000000000000000000000000000000000000000602082015250565b600061218e602183611b8b565b915061219982612132565b604082019050919050565b600060208201905081810360008301526121bd81612181565b9050919050565b7f4552433732313a20617070726f76652063616c6c6572206973206e6f7420746f60008201527f6b656e206f776e6572206f7220617070726f76656420666f7220616c6c000000602082015250565b6000612220603d83611b8b565b915061222b826121c4565b604082019050919050565b6000602082019050818103600083015261224f81612213565b9050919050565b7f4552433732313a2063616c6c6572206973206e6f7420746f6b656e206f776e6560008201527f72206f7220617070726f76656400000000000000000000000000000000000000602082015250565b60006122b2602d83611b8b565b91506122bd82612256565b604082019050919050565b600060208201905081810360008301526122e1816122a5565b9050919050565b7f4552433732313a20696e76616c696420746f6b656e2049440000000000000000600082015250565b600061231e601883611b8b565b9150612329826122e8565b602082019050919050565b6000602082019050818103600083015261234d81612311565b9050919050565b7f4552433732313a2061646472657373207a65726f206973206e6f74206120766160008201527f6c6964206f776e65720000000000000000000000000000000000000000000000602082015250565b60006123b0602983611b8b565b91506123bb82612354565b604082019050919050565b600060208201905081810360008301526123df816123a3565b9050919050565b600081905092915050565b60006123fc82611b80565b61240681856123e6565b9350612416818560208601611b9c565b80840191505092915050565b600061242e82856123f1565b915061243a82846123f1565b91508190509392505050565b7f4f776e61626c653a206e6577206f776e657220697320746865207a65726f206160008201527f6464726573730000000000000000000000000000000000000000000000000000602082015250565b60006124a2602683611b8b565b91506124ad82612446565b604082019050919050565b600060208201905081810360008301526124d181612495565b9050919050565b7f4552433732313a207472616e736665722066726f6d20696e636f72726563742060008201527f6f776e6572000000000000000000000000000000000000000000000000000000602082015250565b6000612534602583611b8b565b915061253f826124d8565b604082019050919050565b6000602082019050818103600083015261256381612527565b9050919050565b7f4552433732313a207472616e7366657220746f20746865207a65726f2061646460008201527f7265737300000000000000000000000000000000000000000000000000000000602082015250565b60006125c6602483611b8b565b91506125d18261256a565b604082019050919050565b600060208201905081810360008301526125f5816125b9565b9050919050565b7f4f776e61626c653a2063616c6c6572206973206e6f7420746865206f776e6572600082015250565b6000612632602083611b8b565b915061263d826125fc565b602082019050919050565b6000602082019050818103600083015261266181612625565b9050919050565b7f4552433732313a20617070726f766520746f2063616c6c657200000000000000600082015250565b600061269e601983611b8b565b91506126a982612668565b602082019050919050565b600060208201905081810360008301526126cd81612691565b9050919050565b7f4552433732313a207472616e7366657220746f206e6f6e20455243373231526560008201527f63656976657220696d706c656d656e7465720000000000000000000000000000602082015250565b6000612730603283611b8b565b915061273b826126d4565b604082019050919050565b6000602082019050818103600083015261275f81612723565b9050919050565b7f4e487b7100000000000000000000000000000000000000000000000000000000600052601260045260246000fd5b600081519050919050565b600082825260208201905092915050565b60006127bc82612795565b6127c681856127a0565b93506127d6818560208601611b9c565b6127df81611bc6565b840191505092915050565b60006080820190506127ff6000830187611cc7565b61280c6020830186611cc7565b6128196040830185611ddd565b818103606083015261282b81846127b1565b905095945050505050565b60008151905061284581611af1565b92915050565b60006020828403121561286157612860611abb565b5b600061286f84828501612836565b91505092915050565b7f4552433732313a206d696e7420746f20746865207a65726f2061646472657373600082015250565b60006128ae602083611b8b565b91506128b982612878565b602082019050919050565b600060208201905081810360008301526128dd816128a1565b9050919050565b7f4552433732313a20746f6b656e20616c7265616479206d696e74656400000000600082015250565b600061291a601c83611b8b565b9150612925826128e4565b602082019050919050565b600060208201905081810360008301526129498161290d565b905091905056fea2646970667358221220dc667f4d9e602164002756aa36f41c202d68262741ce344bdccb292dc4b8b05e64736f6c63430008130033",
  "immutableReferences": {},
  "source": "//SPDX-License-Identifier: UNLICENSED\n\npragma solidity ^0.8.0;\n\nimport \"./required/ERC721.sol\";\nimport \"./required/Ownable.sol\";\nimport \"./required/Counters.sol\";\n\ncontract CertificateNFT is ERC721, Ownable { \n    using Counters for Counters.Counter;\n    Counters.Counter public _tokenIdCounter;\n    constructor () ERC721(\"CertificateNFT\", \"CFT\") {   \n    }\n\n    //Create NFT - safemint and approve the same\n    function createNFT (address fundRaiser, address createdContract, uint256 certificateID) public {\n        _safeMint(fundRaiser, certificateID);   \n        _approve(createdContract, certificateID);\n    }\n\n    //Transfer CertificateNFT from fundraiser to the donor\n    function transferNFT(address fundRaiser, address donor,address createdContract, uint256 certificateID) public {\n        transferFrom(fundRaiser, donor , certificateID);\n        _approve(createdContract, certificateID);\n        _tokenIdCounter.increment();\n    }\n\n    function buyNFT(address seller, address buyer,address createdContract,uint token) public {\n        transferFrom(seller, buyer , token);\n        _approve(createdContract, token);\n    }\n\n}",
  "sourcePath": "C:\\Users\\ruthi\\Desktop\\New folder\\contracts\\CertificateNFT.sol",
  "compiler": {
    "name": "solc",
    "version": "0.8.19+commit.7dd6d404.Emscripten.clang"
  },
  "schemaVersion": "3.4.13",
  "updatedAt": "2023-05-06T20:01:49.545Z",
  "networkType": "ethereum",
  "devdoc": {
    "events": {
      "Approval(address,address,uint256)": {
        "details": "Emitted when `owner` enables `approved` to manage the `tokenId` token."
      },
      "ApprovalForAll(address,address,bool)": {
        "details": "Emitted when `owner` enables or disables (`approved`) `operator` to manage all of its assets."
      },
      "Transfer(address,address,uint256)": {
        "details": "Emitted when `tokenId` token is transferred from `from` to `to`."
      }
    },
    "kind": "dev",
    "methods": {
      "approve(address,uint256)": {
        "details": "See {IERC721-approve}."
      },
      "balanceOf(address)": {
        "details": "See {IERC721-balanceOf}."
      },
      "getApproved(uint256)": {
        "details": "See {IERC721-getApproved}."
      },
      "isApprovedForAll(address,address)": {
        "details": "See {IERC721-isApprovedForAll}."
      },
      "name()": {
        "details": "See {IERC721Metadata-name}."
      },
      "owner()": {
        "details": "Returns the address of the current owner."
      },
      "ownerOf(uint256)": {
        "details": "See {IERC721-ownerOf}."
      },
      "renounceOwnership()": {
        "details": "Leaves the contract without owner. It will not be possible to call `onlyOwner` functions anymore. Can only be called by the current owner. NOTE: Renouncing ownership will leave the contract without an owner, thereby removing any functionality that is only available to the owner."
      },
      "safeTransferFrom(address,address,uint256)": {
        "details": "See {IERC721-safeTransferFrom}."
      },
      "safeTransferFrom(address,address,uint256,bytes)": {
        "details": "See {IERC721-safeTransferFrom}."
      },
      "setApprovalForAll(address,bool)": {
        "details": "See {IERC721-setApprovalForAll}."
      },
      "supportsInterface(bytes4)": {
        "details": "See {IERC165-supportsInterface}."
      },
      "symbol()": {
        "details": "See {IERC721Metadata-symbol}."
      },
      "tokenURI(uint256)": {
        "details": "See {IERC721Metadata-tokenURI}."
      },
      "transferFrom(address,address,uint256)": {
        "details": "See {IERC721-transferFrom}."
      },
      "transferOwnership(address)": {
        "details": "Transfers ownership of the contract to a new account (`newOwner`). Can only be called by the current owner."
      }
    },
    "version": 1
  },
  "userdoc": {
    "kind": "user",
    "methods": {},
    "version": 1
  }
}