{
  "contractName": "CertificateNFT",
  "abi": [
    {
      "inputs": [],
      "stateMutability": "nonpayable",
      "type": "constructor"
    },
    {
      "anonymous": false,
      "inputs": [
        {
          "indexed": true,
          "internalType": "address",
          "name": "owner",
          "type": "address"
        },
        {
          "indexed": true,
          "internalType": "address",
          "name": "approved",
          "type": "address"
        },
        {
          "indexed": true,
          "internalType": "uint256",
          "name": "tokenId",
          "type": "uint256"
        }
      ],
      "name": "Approval",
      "type": "event"
    },
    {
      "anonymous": false,
      "inputs": [
        {
          "indexed": true,
          "internalType": "address",
          "name": "owner",
          "type": "address"
        },
        {
          "indexed": true,
          "internalType": "address",
          "name": "operator",
          "type": "address"
        },
        {
          "indexed": false,
          "internalType": "bool",
          "name": "approved",
          "type": "bool"
        }
      ],
      "name": "ApprovalForAll",
      "type": "event"
    },
    {
      "anonymous": false,
      "inputs": [
        {
          "indexed": true,
          "internalType": "address",
          "name": "previousOwner",
          "type": "address"
        },
        {
          "indexed": true,
          "internalType": "address",
          "name": "newOwner",
          "type": "address"
        }
      ],
      "name": "OwnershipTransferred",
      "type": "event"
    },
    {
      "anonymous": false,
      "inputs": [
        {
          "indexed": true,
          "internalType": "address",
          "name": "from",
          "type": "address"
        },
        {
          "indexed": true,
          "internalType": "address",
          "name": "to",
          "type": "address"
        },
        {
          "indexed": true,
          "internalType": "uint256",
          "name": "tokenId",
          "type": "uint256"
        }
      ],
      "name": "Transfer",
      "type": "event"
    },
    {
      "inputs": [
        {
          "internalType": "address",
          "name": "to",
          "type": "address"
        },
        {
          "internalType": "uint256",
          "name": "tokenId",
          "type": "uint256"
        }
      ],
      "name": "approve",
      "outputs": [],
      "stateMutability": "nonpayable",
      "type": "function"
    },
    {
      "inputs": [
        {
          "internalType": "address",
          "name": "owner",
          "type": "address"
        }
      ],
      "name": "balanceOf",
      "outputs": [
        {
          "internalType": "uint256",
          "name": "",
          "type": "uint256"
        }
      ],
      "stateMutability": "view",
      "type": "function",
      "constant": true
    },
    {
      "inputs": [
        {
          "internalType": "uint256",
          "name": "tokenId",
          "type": "uint256"
        }
      ],
      "name": "getApproved",
      "outputs": [
        {
          "internalType": "address",
          "name": "",
          "type": "address"
        }
      ],
      "stateMutability": "view",
      "type": "function",
      "constant": true
    },
    {
      "inputs": [
        {
          "internalType": "address",
          "name": "owner",
          "type": "address"
        },
        {
          "internalType": "address",
          "name": "operator",
          "type": "address"
        }
      ],
      "name": "isApprovedForAll",
      "outputs": [
        {
          "internalType": "bool",
          "name": "",
          "type": "bool"
        }
      ],
      "stateMutability": "view",
      "type": "function",
      "constant": true
    },
    {
      "inputs": [],
      "name": "name",
      "outputs": [
        {
          "internalType": "string",
          "name": "",
          "type": "string"
        }
      ],
      "stateMutability": "view",
      "type": "function",
      "constant": true
    },
    {
      "inputs": [],
      "name": "owner",
      "outputs": [
        {
          "internalType": "address",
          "name": "",
          "type": "address"
        }
      ],
      "stateMutability": "view",
      "type": "function",
      "constant": true
    },
    {
      "inputs": [
        {
          "internalType": "uint256",
          "name": "tokenId",
          "type": "uint256"
        }
      ],
      "name": "ownerOf",
      "outputs": [
        {
          "internalType": "address",
          "name": "",
          "type": "address"
        }
      ],
      "stateMutability": "view",
      "type": "function",
      "constant": true
    },
    {
      "inputs": [],
      "name": "renounceOwnership",
      "outputs": [],
      "stateMutability": "nonpayable",
      "type": "function"
    },
    {
      "inputs": [
        {
          "internalType": "address",
          "name": "from",
          "type": "address"
        },
        {
          "internalType": "address",
          "name": "to",
          "type": "address"
        },
        {
          "internalType": "uint256",
          "name": "tokenId",
          "type": "uint256"
        }
      ],
      "name": "safeTransferFrom",
      "outputs": [],
      "stateMutability": "nonpayable",
      "type": "function"
    },
    {
      "inputs": [
        {
          "internalType": "address",
          "name": "from",
          "type": "address"
        },
        {
          "internalType": "address",
          "name": "to",
          "type": "address"
        },
        {
          "internalType": "uint256",
          "name": "tokenId",
          "type": "uint256"
        },
        {
          "internalType": "bytes",
          "name": "data",
          "type": "bytes"
        }
      ],
      "name": "safeTransferFrom",
      "outputs": [],
      "stateMutability": "nonpayable",
      "type": "function"
    },
    {
      "inputs": [
        {
          "internalType": "address",
          "name": "operator",
          "type": "address"
        },
        {
          "internalType": "bool",
          "name": "approved",
          "type": "bool"
        }
      ],
      "name": "setApprovalForAll",
      "outputs": [],
      "stateMutability": "nonpayable",
      "type": "function"
    },
    {
      "inputs": [
        {
          "internalType": "bytes4",
          "name": "interfaceId",
          "type": "bytes4"
        }
      ],
      "name": "supportsInterface",
      "outputs": [
        {
          "internalType": "bool",
          "name": "",
          "type": "bool"
        }
      ],
      "stateMutability": "view",
      "type": "function",
      "constant": true
    },
    {
      "inputs": [],
      "name": "symbol",
      "outputs": [
        {
          "internalType": "string",
          "name": "",
          "type": "string"
        }
      ],
      "stateMutability": "view",
      "type": "function",
      "constant": true
    },
    {
      "inputs": [
        {
          "internalType": "uint256",
          "name": "tokenId",
          "type": "uint256"
        }
      ],
      "name": "tokenURI",
      "outputs": [
        {
          "internalType": "string",
          "name": "",
          "type": "string"
        }
      ],
      "stateMutability": "view",
      "type": "function",
      "constant": true
    },
    {
      "inputs": [
        {
          "internalType": "address",
          "name": "from",
          "type": "address"
        },
        {
          "internalType": "address",
          "name": "to",
          "type": "address"
        },
        {
          "internalType": "uint256",
          "name": "tokenId",
          "type": "uint256"
        }
      ],
      "name": "transferFrom",
      "outputs": [],
      "stateMutability": "nonpayable",
      "type": "function"
    },
    {
      "inputs": [
        {
          "internalType": "address",
          "name": "newOwner",
          "type": "address"
        }
      ],
      "name": "transferOwnership",
      "outputs": [],
      "stateMutability": "nonpayable",
      "type": "function"
    },
    {
      "inputs": [
        {
          "internalType": "address",
          "name": "fundRaiser",
          "type": "address"
        },
        {
          "internalType": "address",
          "name": "createdContract",
          "type": "address"
        },
        {
          "internalType": "uint256",
          "name": "certificateID",
          "type": "uint256"
        }
      ],
      "name": "createNFT",
      "outputs": [],
      "stateMutability": "nonpayable",
      "type": "function"
    },
    {
      "inputs": [
        {
          "internalType": "address",
          "name": "fundRaiser",
          "type": "address"
        },
        {
          "internalType": "address",
          "name": "donor",
          "type": "address"
        },
        {
          "internalType": "address",
          "name": "createdContract",
          "type": "address"
        },
        {
          "internalType": "uint256",
          "name": "certificateID",
          "type": "uint256"
        }
      ],
      "name": "transferNFT",
      "outputs": [],
      "stateMutability": "nonpayable",
      "type": "function"
    }
  ],
  "bytecode": "0x60806040523480156200001157600080fd5b506040518060400160405280600e81526020017f43657274696669636174654e46540000000000000000000000000000000000008152506040518060400160405280600381526020017f434654000000000000000000000000000000000000000000000000000000000081525081600090816200008f919062000412565b508060019081620000a1919062000412565b505050620000c4620000b8620000ca60201b60201c565b620000d260201b60201c565b620004f9565b600033905090565b6000600660009054906101000a900473ffffffffffffffffffffffffffffffffffffffff16905081600660006101000a81548173ffffffffffffffffffffffffffffffffffffffff021916908373ffffffffffffffffffffffffffffffffffffffff1602179055508173ffffffffffffffffffffffffffffffffffffffff168173ffffffffffffffffffffffffffffffffffffffff167f8be0079c531659141344cd1fd0a4f28419497f9722a3daafe3b4186f6b6457e060405160405180910390a35050565b600081519050919050565b7f4e487b7100000000000000000000000000000000000000000000000000000000600052604160045260246000fd5b7f4e487b7100000000000000000000000000000000000000000000000000000000600052602260045260246000fd5b600060028204905060018216806200021a57607f821691505b60208210810362000230576200022f620001d2565b5b50919050565b60008190508160005260206000209050919050565b60006020601f8301049050919050565b600082821b905092915050565b6000600883026200029a7fffffffffffffffffffffffffffffffffffffffffffffffffffffffffffffffff826200025b565b620002a686836200025b565b95508019841693508086168417925050509392505050565b6000819050919050565b6000819050919050565b6000620002f3620002ed620002e784620002be565b620002c8565b620002be565b9050919050565b6000819050919050565b6200030f83620002d2565b620003276200031e82620002fa565b84845462000268565b825550505050565b600090565b6200033e6200032f565b6200034b81848462000304565b505050565b5b8181101562000373576200036760008262000334565b60018101905062000351565b5050565b601f821115620003c2576200038c8162000236565b62000397846200024b565b81016020851015620003a7578190505b620003bf620003b6856200024b565b83018262000350565b50505b505050565b600082821c905092915050565b6000620003e760001984600802620003c7565b1980831691505092915050565b6000620004028383620003d4565b9150826002028217905092915050565b6200041d8262000198565b67ffffffffffffffff811115620004395762000438620001a3565b5b62000445825462000201565b6200045282828562000377565b600060209050601f8311600181146200048a576000841562000475578287015190505b620004818582620003f4565b865550620004f1565b601f1984166200049a8662000236565b60005b82811015620004c4578489015182556001820191506020850194506020810190506200049d565b86831015620004e45784890151620004e0601f891682620003d4565b8355505b6001600288020188555050505b505050505050565b61294180620005096000396000f3fe608060405234801561001057600080fd5b50600436106101165760003560e01c80638da5cb5b116100a2578063b88d4fde11610071578063b88d4fde146102cb578063c344509e146102e7578063c87b56dd14610303578063e985e9c514610333578063f2fde38b1461036357610116565b80638da5cb5b1461025757806395d89b4114610275578063a22cb46514610293578063b0306671146102af57610116565b806323b872dd116100e957806323b872dd146101b557806342842e0e146101d15780636352211e146101ed57806370a082311461021d578063715018a61461024d57610116565b806301ffc9a71461011b57806306fdde031461014b578063081812fc14610169578063095ea7b314610199575b600080fd5b61013560048036038101906101309190611ad8565b61037f565b6040516101429190611b20565b60405180910390f35b610153610461565b6040516101609190611bcb565b60405180910390f35b610183600480360381019061017e9190611c23565b6104f3565b6040516101909190611c91565b60405180910390f35b6101b360048036038101906101ae9190611cd8565b610539565b005b6101cf60048036038101906101ca9190611d18565b610650565b005b6101eb60048036038101906101e69190611d18565b6106b0565b005b61020760048036038101906102029190611c23565b6106d0565b6040516102149190611c91565b60405180910390f35b61023760048036038101906102329190611d6b565b610756565b6040516102449190611da7565b60405180910390f35b61025561080d565b005b61025f610821565b60405161026c9190611c91565b60405180910390f35b61027d61084b565b60405161028a9190611bcb565b60405180910390f35b6102ad60048036038101906102a89190611dee565b6108dd565b005b6102c960048036038101906102c49190611e2e565b6108f3565b005b6102e560048036038101906102e09190611fca565b610960565b005b61030160048036038101906102fc9190611d18565b6109c2565b005b61031d60048036038101906103189190611c23565b6109db565b60405161032a9190611bcb565b60405180910390f35b61034d6004803603810190610348919061204d565b610a43565b60405161035a9190611b20565b60405180910390f35b61037d60048036038101906103789190611d6b565b610ad7565b005b60007f80ac58cd000000000000000000000000000000000000000000000000000000007bffffffffffffffffffffffffffffffffffffffffffffffffffffffff1916827bffffffffffffffffffffffffffffffffffffffffffffffffffffffff1916148061044a57507f5b5e139f000000000000000000000000000000000000000000000000000000007bffffffffffffffffffffffffffffffffffffffffffffffffffffffff1916827bffffffffffffffffffffffffffffffffffffffffffffffffffffffff1916145b8061045a575061045982610b5a565b5b9050919050565b606060008054610470906120bc565b80601f016020809104026020016040519081016040528092919081815260200182805461049c906120bc565b80156104e95780601f106104be576101008083540402835291602001916104e9565b820191906000526020600020905b8154815290600101906020018083116104cc57829003601f168201915b5050505050905090565b60006104fe82610bc4565b6004600083815260200190815260200160002060009054906101000a900473ffffffffffffffffffffffffffffffffffffffff169050919050565b6000610544826106d0565b90508073ffffffffffffffffffffffffffffffffffffffff168373ffffffffffffffffffffffffffffffffffffffff16036105b4576040517f08c379a00000000000000000000000000000000000000000000000000000000081526004016105ab9061215f565b60405180910390fd5b8073ffffffffffffffffffffffffffffffffffffffff166105d3610c0f565b73ffffffffffffffffffffffffffffffffffffffff1614806106025750610601816105fc610c0f565b610a43565b5b610641576040517f08c379a0000000000000000000000000000000000000000000000000000000008152600401610638906121f1565b60405180910390fd5b61064b8383610c17565b505050565b61066161065b610c0f565b82610cd0565b6106a0576040517f08c379a000000000000000000000000000000000000000000000000000000000815260040161069790612283565b60405180910390fd5b6106ab838383610d65565b505050565b6106cb83838360405180602001604052806000815250610960565b505050565b6000806106dc8361105e565b9050600073ffffffffffffffffffffffffffffffffffffffff168173ffffffffffffffffffffffffffffffffffffffff160361074d576040517f08c379a0000000000000000000000000000000000000000000000000000000008152600401610744906122ef565b60405180910390fd5b80915050919050565b60008073ffffffffffffffffffffffffffffffffffffffff168273ffffffffffffffffffffffffffffffffffffffff16036107c6576040517f08c379a00000000000000000000000000000000000000000000000000000000081526004016107bd90612381565b60405180910390fd5b600360008373ffffffffffffffffffffffffffffffffffffffff1673ffffffffffffffffffffffffffffffffffffffff168152602001908152602001600020549050919050565b61081561109b565b61081f6000611119565b565b6000600660009054906101000a900473ffffffffffffffffffffffffffffffffffffffff16905090565b60606001805461085a906120bc565b80601f0160208091040260200160405190810160405280929190818152602001828054610886906120bc565b80156108d35780601f106108a8576101008083540402835291602001916108d3565b820191906000526020600020905b8154815290600101906020018083116108b657829003601f168201915b5050505050905090565b6108ef6108e8610c0f565b83836111df565b5050565b6108fe848483610650565b6109088282610c17565b826007600083815260200190815260200160002060006101000a81548173ffffffffffffffffffffffffffffffffffffffff021916908373ffffffffffffffffffffffffffffffffffffffff16021790555050505050565b61097161096b610c0f565b83610cd0565b6109b0576040517f08c379a00000000000000000000000000000000000000000000000000000000081526004016109a790612283565b60405180910390fd5b6109bc8484848461134b565b50505050565b6109cc83826113a7565b6109d68282610c17565b505050565b60606109e682610bc4565b60006109f06113c5565b90506000815111610a105760405180602001604052806000815250610a3b565b80610a1a846113dc565b604051602001610a2b9291906123dd565b6040516020818303038152906040525b915050919050565b6000600560008473ffffffffffffffffffffffffffffffffffffffff1673ffffffffffffffffffffffffffffffffffffffff16815260200190815260200160002060008373ffffffffffffffffffffffffffffffffffffffff1673ffffffffffffffffffffffffffffffffffffffff16815260200190815260200160002060009054906101000a900460ff16905092915050565b610adf61109b565b600073ffffffffffffffffffffffffffffffffffffffff168173ffffffffffffffffffffffffffffffffffffffff1603610b4e576040517f08c379a0000000000000000000000000000000000000000000000000000000008152600401610b4590612473565b60405180910390fd5b610b5781611119565b50565b60007f01ffc9a7000000000000000000000000000000000000000000000000000000007bffffffffffffffffffffffffffffffffffffffffffffffffffffffff1916827bffffffffffffffffffffffffffffffffffffffffffffffffffffffff1916149050919050565b610bcd816114aa565b610c0c576040517f08c379a0000000000000000000000000000000000000000000000000000000008152600401610c03906122ef565b60405180910390fd5b50565b600033905090565b816004600083815260200190815260200160002060006101000a81548173ffffffffffffffffffffffffffffffffffffffff021916908373ffffffffffffffffffffffffffffffffffffffff160217905550808273ffffffffffffffffffffffffffffffffffffffff16610c8a836106d0565b73ffffffffffffffffffffffffffffffffffffffff167f8c5be1e5ebec7d5bd14f71427d1e84f3dd0314c0f7b2291e5b200ac8c7c3b92560405160405180910390a45050565b600080610cdc836106d0565b90508073ffffffffffffffffffffffffffffffffffffffff168473ffffffffffffffffffffffffffffffffffffffff161480610d1e5750610d1d8185610a43565b5b80610d5c57508373ffffffffffffffffffffffffffffffffffffffff16610d44846104f3565b73ffffffffffffffffffffffffffffffffffffffff16145b91505092915050565b8273ffffffffffffffffffffffffffffffffffffffff16610d85826106d0565b73ffffffffffffffffffffffffffffffffffffffff1614610ddb576040517f08c379a0000000000000000000000000000000000000000000000000000000008152600401610dd290612505565b60405180910390fd5b600073ffffffffffffffffffffffffffffffffffffffff168273ffffffffffffffffffffffffffffffffffffffff1603610e4a576040517f08c379a0000000000000000000000000000000000000000000000000000000008152600401610e4190612597565b60405180910390fd5b610e5783838360016114eb565b8273ffffffffffffffffffffffffffffffffffffffff16610e77826106d0565b73ffffffffffffffffffffffffffffffffffffffff1614610ecd576040517f08c379a0000000000000000000000000000000000000000000000000000000008152600401610ec490612505565b60405180910390fd5b6004600082815260200190815260200160002060006101000a81549073ffffffffffffffffffffffffffffffffffffffff02191690556001600360008573ffffffffffffffffffffffffffffffffffffffff1673ffffffffffffffffffffffffffffffffffffffff168152602001908152602001600020600082825403925050819055506001600360008473ffffffffffffffffffffffffffffffffffffffff1673ffffffffffffffffffffffffffffffffffffffff16815260200190815260200160002060008282540192505081905550816002600083815260200190815260200160002060006101000a81548173ffffffffffffffffffffffffffffffffffffffff021916908373ffffffffffffffffffffffffffffffffffffffff160217905550808273ffffffffffffffffffffffffffffffffffffffff168473ffffffffffffffffffffffffffffffffffffffff167fddf252ad1be2c89b69c2b068fc378daa952ba7f163c4a11628f55a4df523b3ef60405160405180910390a461105983838360016114f1565b505050565b60006002600083815260200190815260200160002060009054906101000a900473ffffffffffffffffffffffffffffffffffffffff169050919050565b6110a3610c0f565b73ffffffffffffffffffffffffffffffffffffffff166110c1610821565b73ffffffffffffffffffffffffffffffffffffffff1614611117576040517f08c379a000000000000000000000000000000000000000000000000000000000815260040161110e90612603565b60405180910390fd5b565b6000600660009054906101000a900473ffffffffffffffffffffffffffffffffffffffff16905081600660006101000a81548173ffffffffffffffffffffffffffffffffffffffff021916908373ffffffffffffffffffffffffffffffffffffffff1602179055508173ffffffffffffffffffffffffffffffffffffffff168173ffffffffffffffffffffffffffffffffffffffff167f8be0079c531659141344cd1fd0a4f28419497f9722a3daafe3b4186f6b6457e060405160405180910390a35050565b8173ffffffffffffffffffffffffffffffffffffffff168373ffffffffffffffffffffffffffffffffffffffff160361124d576040517f08c379a00000000000000000000000000000000000000000000000000000000081526004016112449061266f565b60405180910390fd5b80600560008573ffffffffffffffffffffffffffffffffffffffff1673ffffffffffffffffffffffffffffffffffffffff16815260200190815260200160002060008473ffffffffffffffffffffffffffffffffffffffff1673ffffffffffffffffffffffffffffffffffffffff16815260200190815260200160002060006101000a81548160ff0219169083151502179055508173ffffffffffffffffffffffffffffffffffffffff168373ffffffffffffffffffffffffffffffffffffffff167f17307eab39ab6107e8899845ad3d59bd9653f200f220920489ca2b5937696c318360405161133e9190611b20565b60405180910390a3505050565b611356848484610d65565b611362848484846114f7565b6113a1576040517f08c379a000000000000000000000000000000000000000000000000000000000815260040161139890612701565b60405180910390fd5b50505050565b6113c182826040518060200160405280600081525061167e565b5050565b606060405180602001604052806000815250905090565b6060600060016113eb846116d9565b01905060008167ffffffffffffffff81111561140a57611409611e9f565b5b6040519080825280601f01601f19166020018201604052801561143c5781602001600182028036833780820191505090505b509050600082602001820190505b60011561149f578080600190039150507f3031323334353637383961626364656600000000000000000000000000000000600a86061a8153600a858161149357611492612721565b5b0494506000850361144a575b819350505050919050565b60008073ffffffffffffffffffffffffffffffffffffffff166114cc8361105e565b73ffffffffffffffffffffffffffffffffffffffff1614159050919050565b50505050565b50505050565b60006115188473ffffffffffffffffffffffffffffffffffffffff1661182c565b15611671578373ffffffffffffffffffffffffffffffffffffffff1663150b7a02611541610c0f565b8786866040518563ffffffff1660e01b815260040161156394939291906127a5565b6020604051808303816000875af192505050801561159f57506040513d601f19601f8201168201806040525081019061159c9190612806565b60015b611621573d80600081146115cf576040519150601f19603f3d011682016040523d82523d6000602084013e6115d4565b606091505b506000815103611619576040517f08c379a000000000000000000000000000000000000000000000000000000000815260040161161090612701565b60405180910390fd5b805181602001fd5b63150b7a0260e01b7bffffffffffffffffffffffffffffffffffffffffffffffffffffffff1916817bffffffffffffffffffffffffffffffffffffffffffffffffffffffff191614915050611676565b600190505b949350505050565b611688838361184f565b61169560008484846114f7565b6116d4576040517f08c379a00000000000000000000000000000000000000000000000000000000081526004016116cb90612701565b60405180910390fd5b505050565b600080600090507a184f03e93ff9f4daa797ed6e38ed64bf6a1f0100000000000000008310611737577a184f03e93ff9f4daa797ed6e38ed64bf6a1f010000000000000000838161172d5761172c612721565b5b0492506040810190505b6d04ee2d6d415b85acef81000000008310611774576d04ee2d6d415b85acef8100000000838161176a57611769612721565b5b0492506020810190505b662386f26fc1000083106117a357662386f26fc10000838161179957611798612721565b5b0492506010810190505b6305f5e10083106117cc576305f5e10083816117c2576117c1612721565b5b0492506008810190505b61271083106117f15761271083816117e7576117e6612721565b5b0492506004810190505b60648310611814576064838161180a57611809612721565b5b0492506002810190505b600a8310611823576001810190505b80915050919050565b6000808273ffffffffffffffffffffffffffffffffffffffff163b119050919050565b600073ffffffffffffffffffffffffffffffffffffffff168273ffffffffffffffffffffffffffffffffffffffff16036118be576040517f08c379a00000000000000000000000000000000000000000000000000000000081526004016118b59061287f565b60405180910390fd5b6118c7816114aa565b15611907576040517f08c379a00000000000000000000000000000000000000000000000000000000081526004016118fe906128eb565b60405180910390fd5b6119156000838360016114eb565b61191e816114aa565b1561195e576040517f08c379a0000000000000000000000000000000000000000000000000000000008152600401611955906128eb565b60405180910390fd5b6001600360008473ffffffffffffffffffffffffffffffffffffffff1673ffffffffffffffffffffffffffffffffffffffff16815260200190815260200160002060008282540192505081905550816002600083815260200190815260200160002060006101000a81548173ffffffffffffffffffffffffffffffffffffffff021916908373ffffffffffffffffffffffffffffffffffffffff160217905550808273ffffffffffffffffffffffffffffffffffffffff16600073ffffffffffffffffffffffffffffffffffffffff167fddf252ad1be2c89b69c2b068fc378daa952ba7f163c4a11628f55a4df523b3ef60405160405180910390a4611a686000838360016114f1565b5050565b6000604051905090565b600080fd5b600080fd5b60007fffffffff0000000000000000000000000000000000000000000000000000000082169050919050565b611ab581611a80565b8114611ac057600080fd5b50565b600081359050611ad281611aac565b92915050565b600060208284031215611aee57611aed611a76565b5b6000611afc84828501611ac3565b91505092915050565b60008115159050919050565b611b1a81611b05565b82525050565b6000602082019050611b356000830184611b11565b92915050565b600081519050919050565b600082825260208201905092915050565b60005b83811015611b75578082015181840152602081019050611b5a565b60008484015250505050565b6000601f19601f8301169050919050565b6000611b9d82611b3b565b611ba78185611b46565b9350611bb7818560208601611b57565b611bc081611b81565b840191505092915050565b60006020820190508181036000830152611be58184611b92565b905092915050565b6000819050919050565b611c0081611bed565b8114611c0b57600080fd5b50565b600081359050611c1d81611bf7565b92915050565b600060208284031215611c3957611c38611a76565b5b6000611c4784828501611c0e565b91505092915050565b600073ffffffffffffffffffffffffffffffffffffffff82169050919050565b6000611c7b82611c50565b9050919050565b611c8b81611c70565b82525050565b6000602082019050611ca66000830184611c82565b92915050565b611cb581611c70565b8114611cc057600080fd5b50565b600081359050611cd281611cac565b92915050565b60008060408385031215611cef57611cee611a76565b5b6000611cfd85828601611cc3565b9250506020611d0e85828601611c0e565b9150509250929050565b600080600060608486031215611d3157611d30611a76565b5b6000611d3f86828701611cc3565b9350506020611d5086828701611cc3565b9250506040611d6186828701611c0e565b9150509250925092565b600060208284031215611d8157611d80611a76565b5b6000611d8f84828501611cc3565b91505092915050565b611da181611bed565b82525050565b6000602082019050611dbc6000830184611d98565b92915050565b611dcb81611b05565b8114611dd657600080fd5b50565b600081359050611de881611dc2565b92915050565b60008060408385031215611e0557611e04611a76565b5b6000611e1385828601611cc3565b9250506020611e2485828601611dd9565b9150509250929050565b60008060008060808587031215611e4857611e47611a76565b5b6000611e5687828801611cc3565b9450506020611e6787828801611cc3565b9350506040611e7887828801611cc3565b9250506060611e8987828801611c0e565b91505092959194509250565b600080fd5b600080fd5b7f4e487b7100000000000000000000000000000000000000000000000000000000600052604160045260246000fd5b611ed782611b81565b810181811067ffffffffffffffff82111715611ef657611ef5611e9f565b5b80604052505050565b6000611f09611a6c565b9050611f158282611ece565b919050565b600067ffffffffffffffff821115611f3557611f34611e9f565b5b611f3e82611b81565b9050602081019050919050565b82818337600083830152505050565b6000611f6d611f6884611f1a565b611eff565b905082815260208101848484011115611f8957611f88611e9a565b5b611f94848285611f4b565b509392505050565b600082601f830112611fb157611fb0611e95565b5b8135611fc1848260208601611f5a565b91505092915050565b60008060008060808587031215611fe457611fe3611a76565b5b6000611ff287828801611cc3565b945050602061200387828801611cc3565b935050604061201487828801611c0e565b925050606085013567ffffffffffffffff81111561203557612034611a7b565b5b61204187828801611f9c565b91505092959194509250565b6000806040838503121561206457612063611a76565b5b600061207285828601611cc3565b925050602061208385828601611cc3565b9150509250929050565b7f4e487b7100000000000000000000000000000000000000000000000000000000600052602260045260246000fd5b600060028204905060018216806120d457607f821691505b6020821081036120e7576120e661208d565b5b50919050565b7f4552433732313a20617070726f76616c20746f2063757272656e74206f776e6560008201527f7200000000000000000000000000000000000000000000000000000000000000602082015250565b6000612149602183611b46565b9150612154826120ed565b604082019050919050565b600060208201905081810360008301526121788161213c565b9050919050565b7f4552433732313a20617070726f76652063616c6c6572206973206e6f7420746f60008201527f6b656e206f776e6572206f7220617070726f76656420666f7220616c6c000000602082015250565b60006121db603d83611b46565b91506121e68261217f565b604082019050919050565b6000602082019050818103600083015261220a816121ce565b9050919050565b7f4552433732313a2063616c6c6572206973206e6f7420746f6b656e206f776e6560008201527f72206f7220617070726f76656400000000000000000000000000000000000000602082015250565b600061226d602d83611b46565b915061227882612211565b604082019050919050565b6000602082019050818103600083015261229c81612260565b9050919050565b7f4552433732313a20696e76616c696420746f6b656e2049440000000000000000600082015250565b60006122d9601883611b46565b91506122e4826122a3565b602082019050919050565b60006020820190508181036000830152612308816122cc565b9050919050565b7f4552433732313a2061646472657373207a65726f206973206e6f74206120766160008201527f6c6964206f776e65720000000000000000000000000000000000000000000000602082015250565b600061236b602983611b46565b91506123768261230f565b604082019050919050565b6000602082019050818103600083015261239a8161235e565b9050919050565b600081905092915050565b60006123b782611b3b565b6123c181856123a1565b93506123d1818560208601611b57565b80840191505092915050565b60006123e982856123ac565b91506123f582846123ac565b91508190509392505050565b7f4f776e61626c653a206e6577206f776e657220697320746865207a65726f206160008201527f6464726573730000000000000000000000000000000000000000000000000000602082015250565b600061245d602683611b46565b915061246882612401565b604082019050919050565b6000602082019050818103600083015261248c81612450565b9050919050565b7f4552433732313a207472616e736665722066726f6d20696e636f72726563742060008201527f6f776e6572000000000000000000000000000000000000000000000000000000602082015250565b60006124ef602583611b46565b91506124fa82612493565b604082019050919050565b6000602082019050818103600083015261251e816124e2565b9050919050565b7f4552433732313a207472616e7366657220746f20746865207a65726f2061646460008201527f7265737300000000000000000000000000000000000000000000000000000000602082015250565b6000612581602483611b46565b915061258c82612525565b604082019050919050565b600060208201905081810360008301526125b081612574565b9050919050565b7f4f776e61626c653a2063616c6c6572206973206e6f7420746865206f776e6572600082015250565b60006125ed602083611b46565b91506125f8826125b7565b602082019050919050565b6000602082019050818103600083015261261c816125e0565b9050919050565b7f4552433732313a20617070726f766520746f2063616c6c657200000000000000600082015250565b6000612659601983611b46565b915061266482612623565b602082019050919050565b600060208201905081810360008301526126888161264c565b9050919050565b7f4552433732313a207472616e7366657220746f206e6f6e20455243373231526560008201527f63656976657220696d706c656d656e7465720000000000000000000000000000602082015250565b60006126eb603283611b46565b91506126f68261268f565b604082019050919050565b6000602082019050818103600083015261271a816126de565b9050919050565b7f4e487b7100000000000000000000000000000000000000000000000000000000600052601260045260246000fd5b600081519050919050565b600082825260208201905092915050565b600061277782612750565b612781818561275b565b9350612791818560208601611b57565b61279a81611b81565b840191505092915050565b60006080820190506127ba6000830187611c82565b6127c76020830186611c82565b6127d46040830185611d98565b81810360608301526127e6818461276c565b905095945050505050565b60008151905061280081611aac565b92915050565b60006020828403121561281c5761281b611a76565b5b600061282a848285016127f1565b91505092915050565b7f4552433732313a206d696e7420746f20746865207a65726f2061646472657373600082015250565b6000612869602083611b46565b915061287482612833565b602082019050919050565b600060208201905081810360008301526128988161285c565b9050919050565b7f4552433732313a20746f6b656e20616c7265616479206d696e74656400000000600082015250565b60006128d5601c83611b46565b91506128e08261289f565b602082019050919050565b60006020820190508181036000830152612904816128c8565b905091905056fea264697066735822122035265013520b8a7af7b731d30133bd38ec907a1a9edcd96a70808ca525edf0eb64736f6c63430008130033",
  "immutableReferences": {},
  "source": "//SPDX-License-Identifier: UNLICENSED\n\npragma solidity ^0.8.0;\n\nimport \"./required/ERC721.sol\";\nimport \"./required/Ownable.sol\";\n\ncontract CertificateNFT is ERC721, Ownable { \n    mapping (uint256 => address) private tokenDonorMapping;\n    constructor () ERC721(\"CertificateNFT\", \"CFT\") {   \n    }\n\n    //Create NFT - safemint and approve the same\n    function createNFT (address fundRaiser, address createdContract, uint256 certificateID) public {\n        _safeMint(fundRaiser, certificateID);   \n        _approve(createdContract, certificateID);\n    }\n\n    //Transfer CertificateNFT from fundraiser to the donor\n    function transferNFT(address fundRaiser, address donor,address createdContract, uint256 certificateID) public {\n        transferFrom(fundRaiser, donor , certificateID);\n        _approve(createdContract, certificateID);\n        tokenDonorMapping[certificateID] = donor;\n    }\n\n}",
  "sourcePath": "C:\\Users\\ruthi\\Desktop\\New folder\\contracts\\CertificateNFT.sol",
  "compiler": {
    "name": "solc",
    "version": "0.8.19+commit.7dd6d404.Emscripten.clang"
  },
  "schemaVersion": "3.4.13",
  "updatedAt": "2023-05-06T08:38:02.623Z",
  "networkType": "ethereum",
  "devdoc": {
    "events": {
      "Approval(address,address,uint256)": {
        "details": "Emitted when `owner` enables `approved` to manage the `tokenId` token."
      },
      "ApprovalForAll(address,address,bool)": {
        "details": "Emitted when `owner` enables or disables (`approved`) `operator` to manage all of its assets."
      },
      "Transfer(address,address,uint256)": {
        "details": "Emitted when `tokenId` token is transferred from `from` to `to`."
      }
    },
    "kind": "dev",
    "methods": {
      "approve(address,uint256)": {
        "details": "See {IERC721-approve}."
      },
      "balanceOf(address)": {
        "details": "See {IERC721-balanceOf}."
      },
      "getApproved(uint256)": {
        "details": "See {IERC721-getApproved}."
      },
      "isApprovedForAll(address,address)": {
        "details": "See {IERC721-isApprovedForAll}."
      },
      "name()": {
        "details": "See {IERC721Metadata-name}."
      },
      "owner()": {
        "details": "Returns the address of the current owner."
      },
      "ownerOf(uint256)": {
        "details": "See {IERC721-ownerOf}."
      },
      "renounceOwnership()": {
        "details": "Leaves the contract without owner. It will not be possible to call `onlyOwner` functions anymore. Can only be called by the current owner. NOTE: Renouncing ownership will leave the contract without an owner, thereby removing any functionality that is only available to the owner."
      },
      "safeTransferFrom(address,address,uint256)": {
        "details": "See {IERC721-safeTransferFrom}."
      },
      "safeTransferFrom(address,address,uint256,bytes)": {
        "details": "See {IERC721-safeTransferFrom}."
      },
      "setApprovalForAll(address,bool)": {
        "details": "See {IERC721-setApprovalForAll}."
      },
      "supportsInterface(bytes4)": {
        "details": "See {IERC165-supportsInterface}."
      },
      "symbol()": {
        "details": "See {IERC721Metadata-symbol}."
      },
      "tokenURI(uint256)": {
        "details": "See {IERC721Metadata-tokenURI}."
      },
      "transferFrom(address,address,uint256)": {
        "details": "See {IERC721-transferFrom}."
      },
      "transferOwnership(address)": {
        "details": "Transfers ownership of the contract to a new account (`newOwner`). Can only be called by the current owner."
      }
    },
    "version": 1
  },
  "userdoc": {
    "kind": "user",
    "methods": {},
    "version": 1
  }
}