{
  "contractName": "Donation",
  "abi": [
    {
      "inputs": [
        {
          "internalType": "address",
          "name": "CFTAdress",
          "type": "address"
        }
      ],
      "stateMutability": "nonpayable",
      "type": "constructor"
    },
    {
      "anonymous": false,
      "inputs": [
        {
          "indexed": false,
          "internalType": "string",
          "name": "data",
          "type": "string"
        }
      ],
      "name": "Print",
      "type": "event"
    },
    {
      "inputs": [],
      "name": "certificateID",
      "outputs": [
        {
          "internalType": "uint256",
          "name": "",
          "type": "uint256"
        }
      ],
      "stateMutability": "view",
      "type": "function",
      "constant": true
    },
    {
      "inputs": [],
      "name": "currentPrice",
      "outputs": [
        {
          "internalType": "uint256",
          "name": "",
          "type": "uint256"
        }
      ],
      "stateMutability": "view",
      "type": "function",
      "constant": true
    },
    {
      "inputs": [
        {
          "internalType": "uint256",
          "name": "",
          "type": "uint256"
        }
      ],
      "name": "donorList",
      "outputs": [
        {
          "internalType": "uint256",
          "name": "donorID",
          "type": "uint256"
        },
        {
          "internalType": "address",
          "name": "donorAddress",
          "type": "address"
        },
        {
          "internalType": "uint256",
          "name": "amount",
          "type": "uint256"
        },
        {
          "internalType": "uint256",
          "name": "certificatesSent",
          "type": "uint256"
        }
      ],
      "stateMutability": "view",
      "type": "function",
      "constant": true
    },
    {
      "inputs": [
        {
          "internalType": "address",
          "name": "",
          "type": "address"
        }
      ],
      "name": "fundraisers",
      "outputs": [
        {
          "internalType": "address",
          "name": "fundraiserAddress",
          "type": "address"
        },
        {
          "internalType": "uint256",
          "name": "goalAmount",
          "type": "uint256"
        },
        {
          "internalType": "uint256",
          "name": "amountRaised",
          "type": "uint256"
        },
        {
          "internalType": "bool",
          "name": "isActive",
          "type": "bool"
        }
      ],
      "stateMutability": "view",
      "type": "function",
      "constant": true
    },
    {
      "inputs": [
        {
          "internalType": "address",
          "name": "",
          "type": "address"
        }
      ],
      "name": "membership",
      "outputs": [
        {
          "internalType": "uint256",
          "name": "",
          "type": "uint256"
        }
      ],
      "stateMutability": "view",
      "type": "function",
      "constant": true
    },
    {
      "inputs": [],
      "name": "getOwner",
      "outputs": [
        {
          "internalType": "address",
          "name": "",
          "type": "address"
        }
      ],
      "stateMutability": "view",
      "type": "function",
      "constant": true
    },
    {
      "inputs": [
        {
          "internalType": "uint256",
          "name": "amount",
          "type": "uint256"
        }
      ],
      "name": "setNFT",
      "outputs": [],
      "stateMutability": "nonpayable",
      "type": "function"
    },
    {
      "inputs": [
        {
          "internalType": "address",
          "name": "newFundraiser",
          "type": "address"
        },
        {
          "internalType": "uint256",
          "name": "requiredFunds",
          "type": "uint256"
        }
      ],
      "name": "register",
      "outputs": [],
      "stateMutability": "nonpayable",
      "type": "function"
    },
    {
      "inputs": [],
      "name": "generateRandomId",
      "outputs": [
        {
          "internalType": "uint256",
          "name": "",
          "type": "uint256"
        }
      ],
      "stateMutability": "nonpayable",
      "type": "function"
    },
    {
      "inputs": [
        {
          "internalType": "address payable",
          "name": "toFundraiser",
          "type": "address"
        }
      ],
      "name": "donateFunds",
      "outputs": [],
      "stateMutability": "payable",
      "type": "function",
      "payable": true
    },
    {
      "inputs": [],
      "name": "sendCertificates",
      "outputs": [],
      "stateMutability": "nonpayable",
      "type": "function"
    },
    {
      "inputs": [
        {
          "internalType": "address",
          "name": "requestedBy",
          "type": "address"
        }
      ],
      "name": "unRegister",
      "outputs": [],
      "stateMutability": "nonpayable",
      "type": "function"
    },
    {
      "inputs": [],
      "name": "getFundraiserDetails",
      "outputs": [
        {
          "components": [
            {
              "internalType": "address",
              "name": "fundraiserAddress",
              "type": "address"
            },
            {
              "internalType": "uint256",
              "name": "goalAmount",
              "type": "uint256"
            },
            {
              "internalType": "uint256",
              "name": "amountRaised",
              "type": "uint256"
            },
            {
              "internalType": "bool",
              "name": "isActive",
              "type": "bool"
            },
            {
              "components": [
                {
                  "internalType": "uint256",
                  "name": "donorID",
                  "type": "uint256"
                },
                {
                  "internalType": "address",
                  "name": "donorAddress",
                  "type": "address"
                },
                {
                  "internalType": "uint256",
                  "name": "amount",
                  "type": "uint256"
                },
                {
                  "internalType": "uint256",
                  "name": "certificatesSent",
                  "type": "uint256"
                }
              ],
              "internalType": "struct Donation.Donor[]",
              "name": "donatedBy",
              "type": "tuple[]"
            }
          ],
          "internalType": "struct Donation.Fundraiser",
          "name": "fundraiserAmount",
          "type": "tuple"
        }
      ],
      "stateMutability": "nonpayable",
      "type": "function"
    },
    {
      "inputs": [],
      "name": "totalCertificatesIssued",
      "outputs": [
        {
          "internalType": "uint256",
          "name": "totalCertificateCount",
          "type": "uint256"
        }
      ],
      "stateMutability": "view",
      "type": "function",
      "constant": true
    },
    {
      "inputs": [
        {
          "internalType": "address",
          "name": "seller",
          "type": "address"
        },
        {
          "internalType": "address",
          "name": "buyer",
          "type": "address"
        },
        {
          "internalType": "uint256",
          "name": "tokenId",
          "type": "uint256"
        },
        {
          "internalType": "uint256",
          "name": "amount",
          "type": "uint256"
        }
      ],
      "name": "buyNFT",
      "outputs": [],
      "stateMutability": "payable",
      "type": "function",
      "payable": true
    }
  ],
  "bytecode": "0x60806040526000600255600160045560016005553480156200002057600080fd5b506040516200280d3803806200280d833981810160405281019062000046919062000185565b806000806101000a81548173ffffffffffffffffffffffffffffffffffffffff021916908373ffffffffffffffffffffffffffffffffffffffff16021790555033600160006101000a81548173ffffffffffffffffffffffffffffffffffffffff021916908373ffffffffffffffffffffffffffffffffffffffff1602179055506001600760003373ffffffffffffffffffffffffffffffffffffffff1673ffffffffffffffffffffffffffffffffffffffff16815260200190815260200160002081905550600060038190555050620001b7565b600080fd5b600073ffffffffffffffffffffffffffffffffffffffff82169050919050565b60006200014d8262000120565b9050919050565b6200015f8162000140565b81146200016b57600080fd5b50565b6000815190506200017f8162000154565b92915050565b6000602082840312156200019e576200019d6200011b565b5b6000620001ae848285016200016e565b91505092915050565b61264680620001c76000396000f3fe6080604052600436106100e85760003560e01c8063714ae3511161008a5780639d1b464a116100595780639d1b464a146102cc578063dd6a9f57146102f7578063e5948a5d14610320578063eee0e8401461034b576100e8565b8063714ae3511461020e578063772ccf5d14610239578063893d20e8146102765780639bb089df146102a1576100e8565b80635db4e3f5116100c65780635db4e3f51461014e5780635eed3dcb1461016557806365cf4401146101a55780636d705ebb146101e5576100e8565b806303c13380146100ed57806327c95625146101095780634fb2d09d14610132575b600080fd5b6101076004803603810190610102919061193e565b610376565b005b34801561011557600080fd5b50610130600480360381019061012b91906119a5565b6104bd565b005b61014c60048036038101906101479190611a10565b610643565b005b34801561015a57600080fd5b50610163610bfd565b005b34801561017157600080fd5b5061018c60048036038101906101879190611a3d565b611160565b60405161019c9493929190611a88565b60405180910390f35b3480156101b157600080fd5b506101cc60048036038101906101c791906119a5565b6111c0565b6040516101dc9493929190611ae8565b60405180910390f35b3480156101f157600080fd5b5061020c60048036038101906102079190611b2d565b61121d565b005b34801561021a57600080fd5b5061022361141e565b6040516102309190611b6d565b60405180910390f35b34801561024557600080fd5b50610260600480360381019061025b91906119a5565b61142b565b60405161026d9190611b6d565b60405180910390f35b34801561028257600080fd5b5061028b611443565b6040516102989190611b88565b60405180910390f35b3480156102ad57600080fd5b506102b661146d565b6040516102c39190611b6d565b60405180910390f35b3480156102d857600080fd5b506102e16114c1565b6040516102ee9190611b6d565b60405180910390f35b34801561030357600080fd5b5061031e60048036038101906103199190611a3d565b6114c7565b005b34801561032c57600080fd5b5061033561156e565b6040516103429190611b6d565b60405180910390f35b34801561035757600080fd5b50610360611574565b60405161036d9190611d4a565b60405180910390f35b6000808573ffffffffffffffffffffffffffffffffffffffff163460405161039d90611d9d565b60006040518083038185875af1925050503d80600081146103da576040519150601f19603f3d011682016040523d82523d6000602084013e6103df565b606091505b509150915081610424576040517f08c379a000000000000000000000000000000000000000000000000000000000815260040161041b90611e0f565b60405180910390fd5b60008054906101000a900473ffffffffffffffffffffffffffffffffffffffff1673ffffffffffffffffffffffffffffffffffffffff1663ab087085878730886040518563ffffffff1660e01b81526004016104839493929190611e2f565b600060405180830381600087803b15801561049d57600080fd5b505af11580156104b1573d6000803e3d6000fd5b50505050505050505050565b600160009054906101000a900473ffffffffffffffffffffffffffffffffffffffff1673ffffffffffffffffffffffffffffffffffffffff163373ffffffffffffffffffffffffffffffffffffffff161461051757600080fd5b6001600660008373ffffffffffffffffffffffffffffffffffffffff1673ffffffffffffffffffffffffffffffffffffffff16815260200190815260200160002060030160006101000a81548160ff02191690831515021790556105b0576040517f08c379a00000000000000000000000000000000000000000000000000000000081526004016105a790611ec0565b60405180910390fd5b6000600660008373ffffffffffffffffffffffffffffffffffffffff1673ffffffffffffffffffffffffffffffffffffffff16815260200190815260200160002060030160006101000a81548160ff0219169083151502179055507f241ba3bafc919fb4308284ce03a8f4867a8ec2f0401445d3cf41a468e7db4ae060405161063890611f2c565b60405180910390a150565b6000670de0b6b3a7640000346106599190611faa565b905060011515600660008473ffffffffffffffffffffffffffffffffffffffff1673ffffffffffffffffffffffffffffffffffffffff16815260200190815260200160002060030160009054906101000a900460ff161515146106f1576040517f08c379a00000000000000000000000000000000000000000000000000000000081526004016106e89061204d565b60405180910390fd5b60008111610734576040517f08c379a000000000000000000000000000000000000000000000000000000000815260040161072b906120df565b60405180910390fd5b6001600760008473ffffffffffffffffffffffffffffffffffffffff1673ffffffffffffffffffffffffffffffffffffffff16815260200190815260200160002054146107b6576040517f08c379a00000000000000000000000000000000000000000000000000000000081526004016107ad90612171565b60405180910390fd5b80600660008473ffffffffffffffffffffffffffffffffffffffff1673ffffffffffffffffffffffffffffffffffffffff16815260200190815260200160002060020160008282546108089190612191565b925050819055506000808373ffffffffffffffffffffffffffffffffffffffff163460405161083690611d9d565b60006040518083038185875af1925050503d8060008114610873576040519150601f19603f3d011682016040523d82523d6000602084013e610878565b606091505b5091509150816108bd576040517f08c379a00000000000000000000000000000000000000000000000000000000081526004016108b490611e0f565b60405180910390fd5b6000604051806080016040528060035481526020013373ffffffffffffffffffffffffffffffffffffffff1681526020018581526020016000815250905060016003600082825461090e9190612191565b9250508190555060008054906101000a900473ffffffffffffffffffffffffffffffffffffffff1673ffffffffffffffffffffffffffffffffffffffff1663c344509e863084600001516040518463ffffffff1660e01b815260040161097693929190612224565b600060405180830381600087803b15801561099057600080fd5b505af11580156109a4573d6000803e3d6000fd5b5050505060008054906101000a900473ffffffffffffffffffffffffffffffffffffffff1673ffffffffffffffffffffffffffffffffffffffff1663b03066718683602001513085600001516040518563ffffffff1660e01b8152600401610a0f949392919061225b565b600060405180830381600087803b158015610a2957600080fd5b505af1158015610a3d573d6000803e3d6000fd5b50505050600181606001818151610a549190612191565b9150818152505060088190806001815401808255809150506001900390600052602060002090600402016000909190919091506000820151816000015560208201518160010160006101000a81548173ffffffffffffffffffffffffffffffffffffffff021916908373ffffffffffffffffffffffffffffffffffffffff16021790555060408201518160020155606082015181600301555050600660008673ffffffffffffffffffffffffffffffffffffffff1673ffffffffffffffffffffffffffffffffffffffff1681526020019081526020016000206004018190806001815401808255809150506001900390600052602060002090600402016000909190919091506000820151816000015560208201518160010160006101000a81548173ffffffffffffffffffffffffffffffffffffffff021916908373ffffffffffffffffffffffffffffffffffffffff160217905550604082015181600201556060820151816003015550507f241ba3bafc919fb4308284ce03a8f4867a8ec2f0401445d3cf41a468e7db4ae0604051610bee906122ec565b60405180910390a15050505050565b6001600760003373ffffffffffffffffffffffffffffffffffffffff1673ffffffffffffffffffffffffffffffffffffffff1681526020019081526020016000205414610c4957600080fd5b6000339050600660008273ffffffffffffffffffffffffffffffffffffffff1673ffffffffffffffffffffffffffffffffffffffff16815260200190815260200160002060010154600660008373ffffffffffffffffffffffffffffffffffffffff1673ffffffffffffffffffffffffffffffffffffffff168152602001908152602001600020600201541015610d15576040517f08c379a0000000000000000000000000000000000000000000000000000000008152600401610d0c90612358565b60405180910390fd5b6000600660008373ffffffffffffffffffffffffffffffffffffffff1673ffffffffffffffffffffffffffffffffffffffff16815260200190815260200160002060030160006101000a81548160ff02191690831515021790555060005b600660008373ffffffffffffffffffffffffffffffffffffffff1673ffffffffffffffffffffffffffffffffffffffff168152602001908152602001600020600401805490508110156111275760008054906101000a900473ffffffffffffffffffffffffffffffffffffffff1673ffffffffffffffffffffffffffffffffffffffff1663c344509e83306003546040518463ffffffff1660e01b8152600401610e1f93929190612378565b600060405180830381600087803b158015610e3957600080fd5b505af1158015610e4d573d6000803e3d6000fd5b5050505060008054906101000a900473ffffffffffffffffffffffffffffffffffffffff1673ffffffffffffffffffffffffffffffffffffffff1663b030667183600660008673ffffffffffffffffffffffffffffffffffffffff1673ffffffffffffffffffffffffffffffffffffffff1681526020019081526020016000206004018481548110610ee257610ee16123af565b5b906000526020600020906004020160010160009054906101000a900473ffffffffffffffffffffffffffffffffffffffff16306003546040518563ffffffff1660e01b8152600401610f379493929190611e2f565b600060405180830381600087803b158015610f5157600080fd5b505af1158015610f65573d6000803e3d6000fd5b50505050600160036000828254610f7c9190612191565b925050819055506001600660008473ffffffffffffffffffffffffffffffffffffffff1673ffffffffffffffffffffffffffffffffffffffff1681526020019081526020016000206004018281548110610fd957610fd86123af565b5b90600052602060002090600402016003016000828254610ff99190612191565b925050819055506008600660008473ffffffffffffffffffffffffffffffffffffffff1673ffffffffffffffffffffffffffffffffffffffff1681526020019081526020016000206004018281548110611056576110556123af565b5b90600052602060002090600402019080600181540180825580915050600190039060005260206000209060040201600090919091909150600082015481600001556001820160009054906101000a900473ffffffffffffffffffffffffffffffffffffffff168160010160006101000a81548173ffffffffffffffffffffffffffffffffffffffff021916908373ffffffffffffffffffffffffffffffffffffffff16021790555060028201548160020155600382015481600301555050808061111f906123de565b915050610d73565b507f241ba3bafc919fb4308284ce03a8f4867a8ec2f0401445d3cf41a468e7db4ae060405161115590612472565b60405180910390a150565b6008818154811061117057600080fd5b90600052602060002090600402016000915090508060000154908060010160009054906101000a900473ffffffffffffffffffffffffffffffffffffffff16908060020154908060030154905084565b60066020528060005260406000206000915090508060000160009054906101000a900473ffffffffffffffffffffffffffffffffffffffff16908060010154908060020154908060030160009054906101000a900460ff16905084565b600160009054906101000a900473ffffffffffffffffffffffffffffffffffffffff1673ffffffffffffffffffffffffffffffffffffffff163373ffffffffffffffffffffffffffffffffffffffff161461127757600080fd5b60008290506001600760008373ffffffffffffffffffffffffffffffffffffffff1673ffffffffffffffffffffffffffffffffffffffff1681526020019081526020016000208190555081600660008373ffffffffffffffffffffffffffffffffffffffff1673ffffffffffffffffffffffffffffffffffffffff168152602001908152602001600020600101819055506001600660008373ffffffffffffffffffffffffffffffffffffffff1673ffffffffffffffffffffffffffffffffffffffff16815260200190815260200160002060030160006101000a81548160ff02191690831515021790555082600660008373ffffffffffffffffffffffffffffffffffffffff1673ffffffffffffffffffffffffffffffffffffffff16815260200190815260200160002060000160006101000a81548173ffffffffffffffffffffffffffffffffffffffff021916908373ffffffffffffffffffffffffffffffffffffffff1602179055507f241ba3bafc919fb4308284ce03a8f4867a8ec2f0401445d3cf41a468e7db4ae0604051611411906124de565b60405180910390a1505050565b6000600880549050905090565b60076020528060005260406000206000915090505481565b6000600160009054906101000a900473ffffffffffffffffffffffffffffffffffffffff16905090565b600080423360025460405160200161148793929190612567565b6040516020818303038152906040528051906020012060001c9050600260008154809291906114b5906123de565b91905055508091505090565b60045481565b600160009054906101000a900473ffffffffffffffffffffffffffffffffffffffff1673ffffffffffffffffffffffffffffffffffffffff163373ffffffffffffffffffffffffffffffffffffffff161461152157600080fd5b60008111611564576040517f08c379a000000000000000000000000000000000000000000000000000000000815260040161155b906125f0565b60405180910390fd5b8060048190555050565b60035481565b61157c61185e565b6001600760003373ffffffffffffffffffffffffffffffffffffffff1673ffffffffffffffffffffffffffffffffffffffff16815260200190815260200160002054146115c857600080fd5b6002600581905550600660003373ffffffffffffffffffffffffffffffffffffffff1673ffffffffffffffffffffffffffffffffffffffff16815260200190815260200160002060020154600660003373ffffffffffffffffffffffffffffffffffffffff1673ffffffffffffffffffffffffffffffffffffffff16815260200190815260200160002060010154116116b7576000600660003373ffffffffffffffffffffffffffffffffffffffff1673ffffffffffffffffffffffffffffffffffffffff16815260200190815260200160002060030160006101000a81548160ff0219169083151502179055505b600660003373ffffffffffffffffffffffffffffffffffffffff1673ffffffffffffffffffffffffffffffffffffffff1681526020019081526020016000206040518060a00160405290816000820160009054906101000a900473ffffffffffffffffffffffffffffffffffffffff1673ffffffffffffffffffffffffffffffffffffffff1673ffffffffffffffffffffffffffffffffffffffff16815260200160018201548152602001600282015481526020016003820160009054906101000a900460ff1615151515815260200160048201805480602002602001604051908101604052809291908181526020016000905b828210156118515783829060005260206000209060040201604051806080016040529081600082015481526020016001820160009054906101000a900473ffffffffffffffffffffffffffffffffffffffff1673ffffffffffffffffffffffffffffffffffffffff1673ffffffffffffffffffffffffffffffffffffffff16815260200160028201548152602001600382015481525050815260200190600101906117ab565b5050505081525050905090565b6040518060a00160405280600073ffffffffffffffffffffffffffffffffffffffff1681526020016000815260200160008152602001600015158152602001606081525090565b600080fd5b600073ffffffffffffffffffffffffffffffffffffffff82169050919050565b60006118d5826118aa565b9050919050565b6118e5816118ca565b81146118f057600080fd5b50565b600081359050611902816118dc565b92915050565b6000819050919050565b61191b81611908565b811461192657600080fd5b50565b60008135905061193881611912565b92915050565b60008060008060808587031215611958576119576118a5565b5b6000611966878288016118f3565b9450506020611977878288016118f3565b935050604061198887828801611929565b925050606061199987828801611929565b91505092959194509250565b6000602082840312156119bb576119ba6118a5565b5b60006119c9848285016118f3565b91505092915050565b60006119dd826118aa565b9050919050565b6119ed816119d2565b81146119f857600080fd5b50565b600081359050611a0a816119e4565b92915050565b600060208284031215611a2657611a256118a5565b5b6000611a34848285016119fb565b91505092915050565b600060208284031215611a5357611a526118a5565b5b6000611a6184828501611929565b91505092915050565b611a7381611908565b82525050565b611a82816118ca565b82525050565b6000608082019050611a9d6000830187611a6a565b611aaa6020830186611a79565b611ab76040830185611a6a565b611ac46060830184611a6a565b95945050505050565b60008115159050919050565b611ae281611acd565b82525050565b6000608082019050611afd6000830187611a79565b611b0a6020830186611a6a565b611b176040830185611a6a565b611b246060830184611ad9565b95945050505050565b60008060408385031215611b4457611b436118a5565b5b6000611b52858286016118f3565b9250506020611b6385828601611929565b9150509250929050565b6000602082019050611b826000830184611a6a565b92915050565b6000602082019050611b9d6000830184611a79565b92915050565b611bac816118ca565b82525050565b611bbb81611908565b82525050565b611bca81611acd565b82525050565b600081519050919050565b600082825260208201905092915050565b6000819050602082019050919050565b608082016000820151611c126000850182611bb2565b506020820151611c256020850182611ba3565b506040820151611c386040850182611bb2565b506060820151611c4b6060850182611bb2565b50505050565b6000611c5d8383611bfc565b60808301905092915050565b6000602082019050919050565b6000611c8182611bd0565b611c8b8185611bdb565b9350611c9683611bec565b8060005b83811015611cc7578151611cae8882611c51565b9750611cb983611c69565b925050600181019050611c9a565b5085935050505092915050565b600060a083016000830151611cec6000860182611ba3565b506020830151611cff6020860182611bb2565b506040830151611d126040860182611bb2565b506060830151611d256060860182611bc1565b5060808301518482036080860152611d3d8282611c76565b9150508091505092915050565b60006020820190508181036000830152611d648184611cd4565b905092915050565b600081905092915050565b50565b6000611d87600083611d6c565b9150611d9282611d77565b600082019050919050565b6000611da882611d7a565b9150819050919050565b600082825260208201905092915050565b7f4661696c656420746f2073656e64204574686572000000000000000000000000600082015250565b6000611df9601483611db2565b9150611e0482611dc3565b602082019050919050565b60006020820190508181036000830152611e2881611dec565b9050919050565b6000608082019050611e446000830187611a79565b611e516020830186611a79565b611e5e6040830185611a79565b611e6b6060830184611a6a565b95945050505050565b7f46756e6472616973657220697320496e61637469766500000000000000000000600082015250565b6000611eaa601683611db2565b9150611eb582611e74565b602082019050919050565b60006020820190508181036000830152611ed981611e9d565b9050919050565b7f556e72656769737465722063616c6c6564212121000000000000000000000000600082015250565b6000611f16601483611db2565b9150611f2182611ee0565b602082019050919050565b60006020820190508181036000830152611f4581611f09565b9050919050565b7f4e487b7100000000000000000000000000000000000000000000000000000000600052601260045260246000fd5b7f4e487b7100000000000000000000000000000000000000000000000000000000600052601160045260246000fd5b6000611fb582611908565b9150611fc083611908565b925082611fd057611fcf611f4c565b5b828204905092915050565b7f46756e647261697365722073686f756c642062652061637469766520746f206460008201527f6f6e617465000000000000000000000000000000000000000000000000000000602082015250565b6000612037602583611db2565b915061204282611fdb565b604082019050919050565b600060208201905081810360008301526120668161202a565b9050919050565b7f446f6e6174696f6e20616d6f756e74206d75737420626520677265617465722060008201527f7468616e207a65726f0000000000000000000000000000000000000000000000602082015250565b60006120c9602983611db2565b91506120d48261206d565b604082019050919050565b600060208201905081810360008301526120f8816120bc565b9050919050565b7f4f6e6c792046756e6472616973657220616464726573732063616e206265206760008201527f6976656e00000000000000000000000000000000000000000000000000000000602082015250565b600061215b602483611db2565b9150612166826120ff565b604082019050919050565b6000602082019050818103600083015261218a8161214e565b9050919050565b600061219c82611908565b91506121a783611908565b92508282019050808211156121bf576121be611f7b565b5b92915050565b6000819050919050565b60006121ea6121e56121e0846118aa565b6121c5565b6118aa565b9050919050565b60006121fc826121cf565b9050919050565b600061220e826121f1565b9050919050565b61221e81612203565b82525050565b60006060820190506122396000830186612215565b6122466020830185611a79565b6122536040830184611a6a565b949350505050565b60006080820190506122706000830187612215565b61227d6020830186611a79565b61228a6040830185611a79565b6122976060830184611a6a565b95945050505050565b7f446f6e6174696f6e2063616c6c65642021212100000000000000000000000000600082015250565b60006122d6601383611db2565b91506122e1826122a0565b602082019050919050565b60006020820190508181036000830152612305816122c9565b9050919050565b7f476f616c20616d6f756e74206e6f742072656163686564000000000000000000600082015250565b6000612342601783611db2565b915061234d8261230c565b602082019050919050565b6000602082019050818103600083015261237181612335565b9050919050565b600060608201905061238d6000830186611a79565b61239a6020830185611a79565b6123a76040830184611a6a565b949350505050565b7f4e487b7100000000000000000000000000000000000000000000000000000000600052603260045260246000fd5b60006123e982611908565b91507fffffffffffffffffffffffffffffffffffffffffffffffffffffffffffffffff820361241b5761241a611f7b565b5b600182019050919050565b7f436572746966696361746573206172652073656e742121210000000000000000600082015250565b600061245c601883611db2565b915061246782612426565b602082019050919050565b6000602082019050818103600083015261248b8161244f565b9050919050565b7f52656769737465722063616c6c65642021212100000000000000000000000000600082015250565b60006124c8601383611db2565b91506124d382612492565b602082019050919050565b600060208201905081810360008301526124f7816124bb565b9050919050565b6000819050919050565b61251961251482611908565b6124fe565b82525050565b60008160601b9050919050565b60006125378261251f565b9050919050565b60006125498261252c565b9050919050565b61256161255c826118ca565b61253e565b82525050565b60006125738286612508565b6020820191506125838285612550565b6014820191506125938284612508565b602082019150819050949350505050565b7f416d6f756e74206d7573742062652067726561746572207468616e207a65726f600082015250565b60006125da602083611db2565b91506125e5826125a4565b602082019050919050565b60006020820190508181036000830152612609816125cd565b905091905056fea2646970667358221220941fc3868c01d317efe1651dc816f8d37f5a4d535aa0b5c9e7ae0e4002599ec964736f6c63430008130033",
  "immutableReferences": {},
  "source": "//SPDX-License-Identifier: UNLICENSED\n\npragma solidity ^0.8.0;\n\nimport \"./required/ERC721.sol\";\nimport \"./required/Ownable.sol\";\n\nimport \"./CertificateNFT.sol\";\n\ncontract Donation {\n    event Print(string data);\n\n    CertificateNFT cft;\n    address owner;\n\n    // Donor Structure\n    struct Donor {\n        uint256 donorID; //Donor unique ID\n        address donorAddress; //Donor address\n        uint256 amount; //donation amount\n        uint certificatesSent; //number of certificates donor received\n    }\n    uint256 private counter = 0; // Used to generate unique ID\n    uint public certificateID; // Unique ID generated using counter\n    uint256 public currentPrice = 1;\n    uint256 eventVariable = 1;\n    // Fundraiser structure\n    struct Fundraiser {\n        address fundraiserAddress; //fundraiser address\n\t\tuint256 goalAmount; //goal amount\n\t\tuint256 amountRaised; //amount raised\n\t\tbool isActive; // check if fundraiser is active or no\n\t\tDonor[] donatedBy; // List of donors\n    }\n    // Store all the fundraisers\n    mapping (address=>Fundraiser) public fundraisers ;\n    mapping (address=>uint) public membership; //Owner, Fundraiser = 1; Others = 0\n    // List of all donors\n    Donor[] public donorList;\n\n    // modifier to check for owner\n    modifier onlyOwner{ \n        require(msg.sender==owner);\n        _;\n    }\n\n    // modifier to check for fundraiser or others\n    modifier onlyFundraiser { \n        require(membership[msg.sender]==1);\n        _;\n    }\n     function getOwner() public view returns (address) {\n        return owner;\n    }\n\n    function setNFT(uint256 amount) public onlyOwner {\n        require(amount > 0, \"Amount must be greater than zero\");\n        currentPrice = amount;\n    }\n\n    // constructor to initiate owner when deployed - accepts nft address\n    constructor(address CFTAdress) {\n        cft = CertificateNFT(CFTAdress);\n        owner = msg.sender;\n        membership[msg.sender] = 1;\n        certificateID = 0;\n    }\n\n    // only owner can register for fundraisers\n    function register(address newFundraiser, uint requiredFunds) public onlyOwner{\n        address fundraiser = newFundraiser;      \n        membership[fundraiser]=1;\n        fundraisers[fundraiser].goalAmount = requiredFunds;\n        fundraisers[fundraiser].isActive = true;\n        fundraisers[fundraiser].fundraiserAddress = newFundraiser;\n        emit Print(\"Register called !!!\");\n    }\n\n    // generate random unique ID\n    function generateRandomId() public returns (uint256) {\n        uint256 randomNumber = uint256(keccak256(abi.encodePacked(block.timestamp, msg.sender, counter)));\n        counter++;\n        return randomNumber;\n    }\n\n      function donateFunds(address payable toFundraiser) public payable {\n        uint donatedAmount = msg.value/1000000000000000000;\n        require(fundraisers[toFundraiser].isActive == true, \"Fundraiser should be active to donate\");\n        require(donatedAmount > 0, \"Donation amount must be greater than zero\");\n        require(membership[toFundraiser]==1, \"Only Fundraiser address can be given\");\n        // require(membership[msg.sender]!=1, \"Money can be donated to Fundraiser address only\");\n        fundraisers[toFundraiser].amountRaised += donatedAmount;\n        (bool sent, bytes memory data) = toFundraiser.call{value: msg.value}(\"\");\n        require(sent, \"Failed to send Ether\");\n        Donor memory currentDonor = Donor(certificateID,msg.sender, donatedAmount, 0);\n        certificateID += 1;\n        // fundraiser address, SC address, donorID, tokenId\n        cft.createNFT(toFundraiser, address(this), currentDonor.donorID);\n        cft.transferNFT(toFundraiser,currentDonor.donorAddress, address(this), currentDonor.donorID);\n\n        currentDonor.certificatesSent +=1 ;\n        donorList.push(currentDonor);\n        fundraisers[toFundraiser].donatedBy.push(currentDonor);    \n        emit Print(\"Donation called !!!\");    \n    }\n\n    // send certificates to all the donors once the goal amount is reached\n    function sendCertificates() onlyFundraiser public{\n        address toFundraiser = msg.sender;        \n        require(fundraisers[toFundraiser].amountRaised >= fundraisers[toFundraiser].goalAmount, \"Goal amount not reached\");\n        fundraisers[toFundraiser].isActive = false;\n        for(uint i=0;i< fundraisers[toFundraiser].donatedBy.length;i++){\n            // ceate and send NFT to donor\n            cft.createNFT(toFundraiser, address(this), certificateID);\n            cft.transferNFT(toFundraiser,fundraisers[toFundraiser].donatedBy[i].donorAddress, address(this), certificateID);\n            certificateID += 1;\n            fundraisers[toFundraiser].donatedBy[i].certificatesSent += 1;\n            donorList.push(fundraisers[toFundraiser].donatedBy[i]);\n        }\n        emit Print(\"Certificates are sent!!!\");\n    }\n    \n    // unrregister the fundraiser once the goal amount is reached\n    function unRegister(address requestedBy) onlyOwner public {\n        require(fundraisers[requestedBy].isActive = true, \"Fundraiser is Inactive\");\n        fundraisers[requestedBy].isActive = false;\n         emit Print(\"Unregister called!!!\");\n    }\n\n    // get the fundraiser details\n    function getFundraiserDetails() public onlyFundraiser returns(Fundraiser memory fundraiserAmount){\n        eventVariable = 2;\n        if(fundraisers[msg.sender].goalAmount<=fundraisers[msg.sender].amountRaised) {\n            fundraisers[msg.sender].isActive = false;\n        }\n        fundraiserAmount = fundraisers[msg.sender];\n    }\n\n    // Check total certificates issued till now\n    function totalCertificatesIssued() public view returns(uint totalCertificateCount) {\n        totalCertificateCount = donorList.length;\n    }\n\n    function buyNFT(address seller, address buyer, uint tokenId, uint amount) public payable{\n        (bool sent, bytes memory data) = seller.call{value: msg.value}(\"\");\n        require(sent, \"Failed to send Ether\");\n        cft.buyNFT(seller, buyer, address(this), tokenId);\n    }\n\n}",
  "sourcePath": "C:\\Users\\ruthi\\Desktop\\New folder\\contracts\\Donation.sol",
  "compiler": {
    "name": "solc",
    "version": "0.8.19+commit.7dd6d404.Emscripten.clang"
  },
  "schemaVersion": "3.4.13",
  "updatedAt": "2023-05-06T20:01:49.587Z",
  "networkType": "ethereum",
  "devdoc": {
    "kind": "dev",
    "methods": {},
    "version": 1
  },
  "userdoc": {
    "kind": "user",
    "methods": {},
    "version": 1
  }
}