{
  "contractName": "Donation",
  "abi": [
    {
      "inputs": [
        {
          "internalType": "address",
          "name": "CFTAdress",
          "type": "address"
        }
      ],
      "stateMutability": "nonpayable",
      "type": "constructor"
    },
    {
      "inputs": [],
      "name": "certificateID",
      "outputs": [
        {
          "internalType": "uint256",
          "name": "",
          "type": "uint256"
        }
      ],
      "stateMutability": "view",
      "type": "function",
      "constant": true
    },
    {
      "inputs": [
        {
          "internalType": "uint256",
          "name": "",
          "type": "uint256"
        }
      ],
      "name": "donorList",
      "outputs": [
        {
          "internalType": "uint256",
          "name": "donorID",
          "type": "uint256"
        },
        {
          "internalType": "address",
          "name": "donorAddress",
          "type": "address"
        },
        {
          "internalType": "uint256",
          "name": "amount",
          "type": "uint256"
        },
        {
          "internalType": "uint256",
          "name": "certificatesSent",
          "type": "uint256"
        }
      ],
      "stateMutability": "view",
      "type": "function",
      "constant": true
    },
    {
      "inputs": [
        {
          "internalType": "address",
          "name": "",
          "type": "address"
        }
      ],
      "name": "fundraisers",
      "outputs": [
        {
          "internalType": "address",
          "name": "fundraiserAddress",
          "type": "address"
        },
        {
          "internalType": "string",
          "name": "usageDetails",
          "type": "string"
        },
        {
          "internalType": "uint256",
          "name": "goalAmount",
          "type": "uint256"
        },
        {
          "internalType": "uint256",
          "name": "amountRaised",
          "type": "uint256"
        },
        {
          "internalType": "bool",
          "name": "isActive",
          "type": "bool"
        }
      ],
      "stateMutability": "view",
      "type": "function",
      "constant": true
    },
    {
      "inputs": [
        {
          "internalType": "address",
          "name": "",
          "type": "address"
        }
      ],
      "name": "membership",
      "outputs": [
        {
          "internalType": "uint256",
          "name": "",
          "type": "uint256"
        }
      ],
      "stateMutability": "view",
      "type": "function",
      "constant": true
    },
    {
      "inputs": [],
      "name": "getOwner",
      "outputs": [
        {
          "internalType": "address",
          "name": "",
          "type": "address"
        }
      ],
      "stateMutability": "view",
      "type": "function",
      "constant": true
    },
    {
      "inputs": [
        {
          "internalType": "address",
          "name": "newFundraiser",
          "type": "address"
        },
        {
          "internalType": "uint256",
          "name": "requiredFunds",
          "type": "uint256"
        }
      ],
      "name": "register",
      "outputs": [],
      "stateMutability": "nonpayable",
      "type": "function"
    },
    {
      "inputs": [],
      "name": "generateRandomId",
      "outputs": [
        {
          "internalType": "uint256",
          "name": "",
          "type": "uint256"
        }
      ],
      "stateMutability": "nonpayable",
      "type": "function"
    },
    {
      "inputs": [
        {
          "internalType": "address payable",
          "name": "toFundraiser",
          "type": "address"
        }
      ],
      "name": "donateFunds",
      "outputs": [],
      "stateMutability": "payable",
      "type": "function",
      "payable": true
    },
    {
      "inputs": [
        {
          "internalType": "string",
          "name": "usage",
          "type": "string"
        }
      ],
      "name": "sendCertificates",
      "outputs": [],
      "stateMutability": "nonpayable",
      "type": "function"
    },
    {
      "inputs": [
        {
          "internalType": "address",
          "name": "requestedBy",
          "type": "address"
        }
      ],
      "name": "unRegister",
      "outputs": [],
      "stateMutability": "nonpayable",
      "type": "function"
    },
    {
      "inputs": [],
      "name": "getFundraiserDetails",
      "outputs": [
        {
          "components": [
            {
              "internalType": "uint256",
              "name": "donorID",
              "type": "uint256"
            },
            {
              "internalType": "address",
              "name": "donorAddress",
              "type": "address"
            },
            {
              "internalType": "uint256",
              "name": "amount",
              "type": "uint256"
            },
            {
              "internalType": "uint256",
              "name": "certificatesSent",
              "type": "uint256"
            }
          ],
          "internalType": "struct Donation.Donor[]",
          "name": "fundraiserAmount",
          "type": "tuple[]"
        }
      ],
      "stateMutability": "view",
      "type": "function",
      "constant": true
    },
    {
      "inputs": [],
      "name": "totalCertificatesIssued",
      "outputs": [
        {
          "internalType": "uint256",
          "name": "totalCertificateCount",
          "type": "uint256"
        }
      ],
      "stateMutability": "view",
      "type": "function",
      "constant": true
    }
  ],
  "bytecode": "0x608060405260006002553480156200001657600080fd5b50604051620025f6380380620025f683398181016040528101906200003c91906200017b565b806000806101000a81548173ffffffffffffffffffffffffffffffffffffffff021916908373ffffffffffffffffffffffffffffffffffffffff16021790555033600160006101000a81548173ffffffffffffffffffffffffffffffffffffffff021916908373ffffffffffffffffffffffffffffffffffffffff1602179055506001600560003373ffffffffffffffffffffffffffffffffffffffff1673ffffffffffffffffffffffffffffffffffffffff16815260200190815260200160002081905550600060038190555050620001ad565b600080fd5b600073ffffffffffffffffffffffffffffffffffffffff82169050919050565b6000620001438262000116565b9050919050565b620001558162000136565b81146200016157600080fd5b50565b60008151905062000175816200014a565b92915050565b60006020828403121562000194576200019362000111565b5b6000620001a48482850162000164565b91505092915050565b61243980620001bd6000396000f3fe6080604052600436106100a75760003560e01c8063772ccf5d11610064578063772ccf5d146101c6578063893d20e8146102035780639bb089df1461022e578063a5023cbd14610259578063e5948a5d14610282578063eee0e840146102ad576100a7565b806327c95625146100ac5780634fb2d09d146100d55780635eed3dcb146100f157806365cf4401146101315780636d705ebb14610172578063714ae3511461019b575b600080fd5b3480156100b857600080fd5b506100d360048036038101906100ce919061151d565b6102d8565b005b6100ef60048036038101906100ea9190611588565b610429565b005b3480156100fd57600080fd5b50610118600480360381019061011391906115eb565b6109ae565b6040516101289493929190611636565b60405180910390f35b34801561013d57600080fd5b506101586004803603810190610153919061151d565b610a0e565b604051610169959493929190611726565b60405180910390f35b34801561017e57600080fd5b5061019960048036038101906101949190611780565b610af9565b005b3480156101a757600080fd5b506101b0610d24565b6040516101bd91906117c0565b60405180910390f35b3480156101d257600080fd5b506101ed60048036038101906101e8919061151d565b610d31565b6040516101fa91906117c0565b60405180910390f35b34801561020f57600080fd5b50610218610d49565b60405161022591906117db565b60405180910390f35b34801561023a57600080fd5b50610243610d73565b60405161025091906117c0565b60405180910390f35b34801561026557600080fd5b50610280600480360381019061027b919061192b565b610dc7565b005b34801561028e57600080fd5b50610297611346565b6040516102a491906117c0565b60405180910390f35b3480156102b957600080fd5b506102c261134c565b6040516102cf9190611a96565b60405180910390f35b600160009054906101000a900473ffffffffffffffffffffffffffffffffffffffff1673ffffffffffffffffffffffffffffffffffffffff163373ffffffffffffffffffffffffffffffffffffffff161461033257600080fd5b6001600460008373ffffffffffffffffffffffffffffffffffffffff1673ffffffffffffffffffffffffffffffffffffffff16815260200190815260200160002060040160006101000a81548160ff02191690831515021790556103cb576040517f08c379a00000000000000000000000000000000000000000000000000000000081526004016103c290611b04565b60405180910390fd5b6000600460008373ffffffffffffffffffffffffffffffffffffffff1673ffffffffffffffffffffffffffffffffffffffff16815260200190815260200160002060040160006101000a81548160ff02191690831515021790555050565b6000670de0b6b3a76400003461043f9190611b82565b905060011515600460008473ffffffffffffffffffffffffffffffffffffffff1673ffffffffffffffffffffffffffffffffffffffff16815260200190815260200160002060040160009054906101000a900460ff161515146104d7576040517f08c379a00000000000000000000000000000000000000000000000000000000081526004016104ce90611c25565b60405180910390fd5b6000811161051a576040517f08c379a000000000000000000000000000000000000000000000000000000000815260040161051190611cb7565b60405180910390fd5b6001600560008473ffffffffffffffffffffffffffffffffffffffff1673ffffffffffffffffffffffffffffffffffffffff168152602001908152602001600020541461059c576040517f08c379a000000000000000000000000000000000000000000000000000000000815260040161059390611d49565b60405180910390fd5b80600460008473ffffffffffffffffffffffffffffffffffffffff1673ffffffffffffffffffffffffffffffffffffffff16815260200190815260200160002060030160008282546105ee9190611d69565b925050819055506000808373ffffffffffffffffffffffffffffffffffffffff163460405161061c90611dce565b60006040518083038185875af1925050503d8060008114610659576040519150601f19603f3d011682016040523d82523d6000602084013e61065e565b606091505b5091509150816106a3576040517f08c379a000000000000000000000000000000000000000000000000000000000815260040161069a90611e2f565b60405180910390fd5b6000604051806080016040528060035481526020013373ffffffffffffffffffffffffffffffffffffffff168152602001858152602001600081525090506001600360008282546106f49190611d69565b9250508190555060008054906101000a900473ffffffffffffffffffffffffffffffffffffffff1673ffffffffffffffffffffffffffffffffffffffff1663c344509e863084600001516040518463ffffffff1660e01b815260040161075c93929190611eae565b600060405180830381600087803b15801561077657600080fd5b505af115801561078a573d6000803e3d6000fd5b5050505060008054906101000a900473ffffffffffffffffffffffffffffffffffffffff1673ffffffffffffffffffffffffffffffffffffffff1663b03066718683602001513085600001516040518563ffffffff1660e01b81526004016107f59493929190611ee5565b600060405180830381600087803b15801561080f57600080fd5b505af1158015610823573d6000803e3d6000fd5b5050505060018160600181815161083a9190611d69565b9150818152505060068190806001815401808255809150506001900390600052602060002090600402016000909190919091506000820151816000015560208201518160010160006101000a81548173ffffffffffffffffffffffffffffffffffffffff021916908373ffffffffffffffffffffffffffffffffffffffff16021790555060408201518160020155606082015181600301555050600460008673ffffffffffffffffffffffffffffffffffffffff1673ffffffffffffffffffffffffffffffffffffffff1681526020019081526020016000206005018190806001815401808255809150506001900390600052602060002090600402016000909190919091506000820151816000015560208201518160010160006101000a81548173ffffffffffffffffffffffffffffffffffffffff021916908373ffffffffffffffffffffffffffffffffffffffff160217905550604082015181600201556060820151816003015550505050505050565b600681815481106109be57600080fd5b90600052602060002090600402016000915090508060000154908060010160009054906101000a900473ffffffffffffffffffffffffffffffffffffffff16908060020154908060030154905084565b60046020528060005260406000206000915090508060000160009054906101000a900473ffffffffffffffffffffffffffffffffffffffff1690806001018054610a5790611f59565b80601f0160208091040260200160405190810160405280929190818152602001828054610a8390611f59565b8015610ad05780601f10610aa557610100808354040283529160200191610ad0565b820191906000526020600020905b815481529060010190602001808311610ab357829003601f168201915b5050505050908060020154908060030154908060040160009054906101000a900460ff16905085565b600160009054906101000a900473ffffffffffffffffffffffffffffffffffffffff1673ffffffffffffffffffffffffffffffffffffffff163373ffffffffffffffffffffffffffffffffffffffff1614610b5357600080fd5b60008290506001600560008373ffffffffffffffffffffffffffffffffffffffff1673ffffffffffffffffffffffffffffffffffffffff1681526020019081526020016000208190555081600460008373ffffffffffffffffffffffffffffffffffffffff1673ffffffffffffffffffffffffffffffffffffffff168152602001908152602001600020600201819055506001600460008373ffffffffffffffffffffffffffffffffffffffff1673ffffffffffffffffffffffffffffffffffffffff16815260200190815260200160002060040160006101000a81548160ff02191690831515021790555082600460008373ffffffffffffffffffffffffffffffffffffffff1673ffffffffffffffffffffffffffffffffffffffff16815260200190815260200160002060000160006101000a81548173ffffffffffffffffffffffffffffffffffffffff021916908373ffffffffffffffffffffffffffffffffffffffff16021790555060405180602001604052806000815250600460008373ffffffffffffffffffffffffffffffffffffffff1673ffffffffffffffffffffffffffffffffffffffff1681526020019081526020016000206001019081610d1e919061212c565b50505050565b6000600680549050905090565b60056020528060005260406000206000915090505481565b6000600160009054906101000a900473ffffffffffffffffffffffffffffffffffffffff16905090565b6000804233600254604051602001610d8d93929190612267565b6040516020818303038152906040528051906020012060001c905060026000815480929190610dbb906122a4565b91905055508091505090565b6001600560003373ffffffffffffffffffffffffffffffffffffffff1673ffffffffffffffffffffffffffffffffffffffff1681526020019081526020016000205414610e1357600080fd5b6000339050600460008273ffffffffffffffffffffffffffffffffffffffff1673ffffffffffffffffffffffffffffffffffffffff16815260200190815260200160002060020154600460008373ffffffffffffffffffffffffffffffffffffffff1673ffffffffffffffffffffffffffffffffffffffff168152602001908152602001600020600301541015610edf576040517f08c379a0000000000000000000000000000000000000000000000000000000008152600401610ed690612338565b60405180910390fd5b81600460008373ffffffffffffffffffffffffffffffffffffffff1673ffffffffffffffffffffffffffffffffffffffff1681526020019081526020016000206001019081610f2e919061212c565b506000600460008373ffffffffffffffffffffffffffffffffffffffff1673ffffffffffffffffffffffffffffffffffffffff16815260200190815260200160002060040160006101000a81548160ff02191690831515021790555060005b600460008373ffffffffffffffffffffffffffffffffffffffff1673ffffffffffffffffffffffffffffffffffffffff168152602001908152602001600020600501805490508110156113415760008054906101000a900473ffffffffffffffffffffffffffffffffffffffff1673ffffffffffffffffffffffffffffffffffffffff1663c344509e83306003546040518463ffffffff1660e01b815260040161103993929190612358565b600060405180830381600087803b15801561105357600080fd5b505af1158015611067573d6000803e3d6000fd5b5050505060008054906101000a900473ffffffffffffffffffffffffffffffffffffffff1673ffffffffffffffffffffffffffffffffffffffff1663b030667183600460008673ffffffffffffffffffffffffffffffffffffffff1673ffffffffffffffffffffffffffffffffffffffff16815260200190815260200160002060050184815481106110fc576110fb61238f565b5b906000526020600020906004020160010160009054906101000a900473ffffffffffffffffffffffffffffffffffffffff16306003546040518563ffffffff1660e01b815260040161115194939291906123be565b600060405180830381600087803b15801561116b57600080fd5b505af115801561117f573d6000803e3d6000fd5b505050506001600360008282546111969190611d69565b925050819055506001600460008473ffffffffffffffffffffffffffffffffffffffff1673ffffffffffffffffffffffffffffffffffffffff16815260200190815260200160002060050182815481106111f3576111f261238f565b5b906000526020600020906004020160030160008282546112139190611d69565b925050819055506006600460008473ffffffffffffffffffffffffffffffffffffffff1673ffffffffffffffffffffffffffffffffffffffff16815260200190815260200160002060050182815481106112705761126f61238f565b5b90600052602060002090600402019080600181540180825580915050600190039060005260206000209060040201600090919091909150600082015481600001556001820160009054906101000a900473ffffffffffffffffffffffffffffffffffffffff168160010160006101000a81548173ffffffffffffffffffffffffffffffffffffffff021916908373ffffffffffffffffffffffffffffffffffffffff160217905550600282015481600201556003820154816003015550508080611339906122a4565b915050610f8d565b505050565b60035481565b60606001600560003373ffffffffffffffffffffffffffffffffffffffff1673ffffffffffffffffffffffffffffffffffffffff168152602001908152602001600020541461139a57600080fd5b600460003373ffffffffffffffffffffffffffffffffffffffff1673ffffffffffffffffffffffffffffffffffffffff168152602001908152602001600020600501805480602002602001604051908101604052809291908181526020016000905b828210156114a25783829060005260206000209060040201604051806080016040529081600082015481526020016001820160009054906101000a900473ffffffffffffffffffffffffffffffffffffffff1673ffffffffffffffffffffffffffffffffffffffff1673ffffffffffffffffffffffffffffffffffffffff16815260200160028201548152602001600382015481525050815260200190600101906113fc565b50505050905090565b6000604051905090565b600080fd5b600080fd5b600073ffffffffffffffffffffffffffffffffffffffff82169050919050565b60006114ea826114bf565b9050919050565b6114fa816114df565b811461150557600080fd5b50565b600081359050611517816114f1565b92915050565b600060208284031215611533576115326114b5565b5b600061154184828501611508565b91505092915050565b6000611555826114bf565b9050919050565b6115658161154a565b811461157057600080fd5b50565b6000813590506115828161155c565b92915050565b60006020828403121561159e5761159d6114b5565b5b60006115ac84828501611573565b91505092915050565b6000819050919050565b6115c8816115b5565b81146115d357600080fd5b50565b6000813590506115e5816115bf565b92915050565b600060208284031215611601576116006114b5565b5b600061160f848285016115d6565b91505092915050565b611621816115b5565b82525050565b611630816114df565b82525050565b600060808201905061164b6000830187611618565b6116586020830186611627565b6116656040830185611618565b6116726060830184611618565b95945050505050565b600081519050919050565b600082825260208201905092915050565b60005b838110156116b557808201518184015260208101905061169a565b60008484015250505050565b6000601f19601f8301169050919050565b60006116dd8261167b565b6116e78185611686565b93506116f7818560208601611697565b611700816116c1565b840191505092915050565b60008115159050919050565b6117208161170b565b82525050565b600060a08201905061173b6000830188611627565b818103602083015261174d81876116d2565b905061175c6040830186611618565b6117696060830185611618565b6117766080830184611717565b9695505050505050565b60008060408385031215611797576117966114b5565b5b60006117a585828601611508565b92505060206117b6858286016115d6565b9150509250929050565b60006020820190506117d56000830184611618565b92915050565b60006020820190506117f06000830184611627565b92915050565b600080fd5b600080fd5b7f4e487b7100000000000000000000000000000000000000000000000000000000600052604160045260246000fd5b611838826116c1565b810181811067ffffffffffffffff8211171561185757611856611800565b5b80604052505050565b600061186a6114ab565b9050611876828261182f565b919050565b600067ffffffffffffffff82111561189657611895611800565b5b61189f826116c1565b9050602081019050919050565b82818337600083830152505050565b60006118ce6118c98461187b565b611860565b9050828152602081018484840111156118ea576118e96117fb565b5b6118f58482856118ac565b509392505050565b600082601f830112611912576119116117f6565b5b81356119228482602086016118bb565b91505092915050565b600060208284031215611941576119406114b5565b5b600082013567ffffffffffffffff81111561195f5761195e6114ba565b5b61196b848285016118fd565b91505092915050565b600081519050919050565b600082825260208201905092915050565b6000819050602082019050919050565b6119a9816115b5565b82525050565b6119b8816114df565b82525050565b6080820160008201516119d460008501826119a0565b5060208201516119e760208501826119af565b5060408201516119fa60408501826119a0565b506060820151611a0d60608501826119a0565b50505050565b6000611a1f83836119be565b60808301905092915050565b6000602082019050919050565b6000611a4382611974565b611a4d818561197f565b9350611a5883611990565b8060005b83811015611a89578151611a708882611a13565b9750611a7b83611a2b565b925050600181019050611a5c565b5085935050505092915050565b60006020820190508181036000830152611ab08184611a38565b905092915050565b7f46756e6472616973657220697320496e61637469766500000000000000000000600082015250565b6000611aee601683611686565b9150611af982611ab8565b602082019050919050565b60006020820190508181036000830152611b1d81611ae1565b9050919050565b7f4e487b7100000000000000000000000000000000000000000000000000000000600052601260045260246000fd5b7f4e487b7100000000000000000000000000000000000000000000000000000000600052601160045260246000fd5b6000611b8d826115b5565b9150611b98836115b5565b925082611ba857611ba7611b24565b5b828204905092915050565b7f46756e647261697365722073686f756c642062652061637469766520746f206460008201527f6f6e617465000000000000000000000000000000000000000000000000000000602082015250565b6000611c0f602583611686565b9150611c1a82611bb3565b604082019050919050565b60006020820190508181036000830152611c3e81611c02565b9050919050565b7f446f6e6174696f6e20616d6f756e74206d75737420626520677265617465722060008201527f7468616e207a65726f0000000000000000000000000000000000000000000000602082015250565b6000611ca1602983611686565b9150611cac82611c45565b604082019050919050565b60006020820190508181036000830152611cd081611c94565b9050919050565b7f4f6e6c792046756e6472616973657220616464726573732063616e206265206760008201527f6976656e00000000000000000000000000000000000000000000000000000000602082015250565b6000611d33602483611686565b9150611d3e82611cd7565b604082019050919050565b60006020820190508181036000830152611d6281611d26565b9050919050565b6000611d74826115b5565b9150611d7f836115b5565b9250828201905080821115611d9757611d96611b53565b5b92915050565b600081905092915050565b50565b6000611db8600083611d9d565b9150611dc382611da8565b600082019050919050565b6000611dd982611dab565b9150819050919050565b7f4661696c656420746f2073656e64204574686572000000000000000000000000600082015250565b6000611e19601483611686565b9150611e2482611de3565b602082019050919050565b60006020820190508181036000830152611e4881611e0c565b9050919050565b6000819050919050565b6000611e74611e6f611e6a846114bf565b611e4f565b6114bf565b9050919050565b6000611e8682611e59565b9050919050565b6000611e9882611e7b565b9050919050565b611ea881611e8d565b82525050565b6000606082019050611ec36000830186611e9f565b611ed06020830185611627565b611edd6040830184611618565b949350505050565b6000608082019050611efa6000830187611e9f565b611f076020830186611627565b611f146040830185611627565b611f216060830184611618565b95945050505050565b7f4e487b7100000000000000000000000000000000000000000000000000000000600052602260045260246000fd5b60006002820490506001821680611f7157607f821691505b602082108103611f8457611f83611f2a565b5b50919050565b60008190508160005260206000209050919050565b60006020601f8301049050919050565b600082821b905092915050565b600060088302611fec7fffffffffffffffffffffffffffffffffffffffffffffffffffffffffffffffff82611faf565b611ff68683611faf565b95508019841693508086168417925050509392505050565b600061202961202461201f846115b5565b611e4f565b6115b5565b9050919050565b6000819050919050565b6120438361200e565b61205761204f82612030565b848454611fbc565b825550505050565b600090565b61206c61205f565b61207781848461203a565b505050565b5b8181101561209b57612090600082612064565b60018101905061207d565b5050565b601f8211156120e0576120b181611f8a565b6120ba84611f9f565b810160208510156120c9578190505b6120dd6120d585611f9f565b83018261207c565b50505b505050565b600082821c905092915050565b6000612103600019846008026120e5565b1980831691505092915050565b600061211c83836120f2565b9150826002028217905092915050565b6121358261167b565b67ffffffffffffffff81111561214e5761214d611800565b5b6121588254611f59565b61216382828561209f565b600060209050601f8311600181146121965760008415612184578287015190505b61218e8582612110565b8655506121f6565b601f1984166121a486611f8a565b60005b828110156121cc578489015182556001820191506020850194506020810190506121a7565b868310156121e957848901516121e5601f8916826120f2565b8355505b6001600288020188555050505b505050505050565b6000819050919050565b612219612214826115b5565b6121fe565b82525050565b60008160601b9050919050565b60006122378261221f565b9050919050565b60006122498261222c565b9050919050565b61226161225c826114df565b61223e565b82525050565b60006122738286612208565b6020820191506122838285612250565b6014820191506122938284612208565b602082019150819050949350505050565b60006122af826115b5565b91507fffffffffffffffffffffffffffffffffffffffffffffffffffffffffffffffff82036122e1576122e0611b53565b5b600182019050919050565b7f476f616c20616d6f756e74206e6f742072656163686564000000000000000000600082015250565b6000612322601783611686565b915061232d826122ec565b602082019050919050565b6000602082019050818103600083015261235181612315565b9050919050565b600060608201905061236d6000830186611627565b61237a6020830185611627565b6123876040830184611618565b949350505050565b7f4e487b7100000000000000000000000000000000000000000000000000000000600052603260045260246000fd5b60006080820190506123d36000830187611627565b6123e06020830186611627565b6123ed6040830185611627565b6123fa6060830184611618565b9594505050505056fea264697066735822122028a28ee85d93d2c9bfb5fdf14b166645ac492ee16d26e4ac8ce90718edf90b9264736f6c63430008130033",
  "immutableReferences": {},
  "source": "//SPDX-License-Identifier: UNLICENSED\n\npragma solidity ^0.8.0;\n\nimport \"./required/ERC721.sol\";\nimport \"./required/Ownable.sol\";\n\nimport \"./CertificateNFT.sol\";\n\ncontract Donation {\n    CertificateNFT cft;\n    address owner;\n\n    // Donor Structure\n    struct Donor {\n        uint256 donorID; //Donor unique ID\n        address donorAddress; //Donor address\n        uint256 amount; //donation amount\n        uint certificatesSent; //number of certificates donor received\n    }\n    uint256 private counter = 0; // Used to generate unique ID\n    uint public certificateID; // Unique ID generated using counter\n\n    // Fundraiser structure\n    struct Fundraiser {\n        address fundraiserAddress; //fundraiser address\n        string usageDetails; //Funds usage details\n\t\tuint256 goalAmount; //goal amount\n\t\tuint256 amountRaised; //amount raised\n\t\tbool isActive; // check if fundraiser is active or no\n\t\tDonor[] donatedBy; // List of donors\n    }\n\n    // Store all the fundraisers\n    mapping (address=>Fundraiser) public fundraisers ;\n    mapping (address=>uint) public membership; //Owner, Fundraiser = 1; Others = 0\n    // List of all donors\n    Donor[] public donorList;\n\n    // modifier to check for owner\n    modifier onlyOwner{ \n        require(msg.sender==owner);\n        _;\n    }\n\n    // modifier to check for fundraiser or others\n    modifier onlyFundraiser { \n        require(membership[msg.sender]==1);\n        _;\n    }\n     function getOwner() public view returns (address) {\n        return owner;\n    }\n\n    // constructor to initiate owner when deployed - accepts nft address\n    constructor(address CFTAdress) {\n        cft = CertificateNFT(CFTAdress);\n        owner = msg.sender;\n        membership[msg.sender] = 1;\n        certificateID = 0;\n    }\n\n    // only owner can register for fundraisers\n    function register(address newFundraiser, uint requiredFunds) public onlyOwner{\n        address fundraiser = newFundraiser;      \n        membership[fundraiser]=1;\n        fundraisers[fundraiser].goalAmount = requiredFunds;\n        fundraisers[fundraiser].isActive = true;\n        fundraisers[fundraiser].fundraiserAddress = newFundraiser;\n        fundraisers[fundraiser].usageDetails = '';\n    }\n\n    // generate random unique ID\n    function generateRandomId() public returns (uint256) {\n        uint256 randomNumber = uint256(keccak256(abi.encodePacked(block.timestamp, msg.sender, counter)));\n        counter++;\n        return randomNumber;\n    }\n\n      function donateFunds(address payable toFundraiser) public payable {\n        uint donatedAmount = msg.value/1000000000000000000;\n        require(fundraisers[toFundraiser].isActive == true, \"Fundraiser should be active to donate\");\n        require(donatedAmount > 0, \"Donation amount must be greater than zero\");\n        require(membership[toFundraiser]==1, \"Only Fundraiser address can be given\");\n        // require(membership[msg.sender]!=1, \"Money can be donated to Fundraiser address only\");\n        fundraisers[toFundraiser].amountRaised += donatedAmount;\n        (bool sent, bytes memory data) = toFundraiser.call{value: msg.value}(\"\");\n        require(sent, \"Failed to send Ether\");\n        Donor memory currentDonor = Donor(certificateID,msg.sender, donatedAmount, 0);\n        certificateID += 1;\n        // fundraiser address, SC address, donorID, tokenId\n        cft.createNFT(toFundraiser, address(this), currentDonor.donorID);\n        cft.transferNFT(toFundraiser,currentDonor.donorAddress, address(this), currentDonor.donorID);\n\n        currentDonor.certificatesSent +=1 ;\n        donorList.push(currentDonor);\n        fundraisers[toFundraiser].donatedBy.push(currentDonor);        \n    }\n\n    // send certificates to all the donors once the goal amount is reached\n    function sendCertificates(string memory usage) onlyFundraiser public{\n        address toFundraiser = msg.sender;        \n        require(fundraisers[toFundraiser].amountRaised >= fundraisers[toFundraiser].goalAmount, \"Goal amount not reached\");\n        fundraisers[toFundraiser].usageDetails = usage;\n        fundraisers[toFundraiser].isActive = false;\n        for(uint i=0;i< fundraisers[toFundraiser].donatedBy.length;i++){\n            // ceate and send NFT to donor\n            cft.createNFT(toFundraiser, address(this), certificateID);\n            cft.transferNFT(toFundraiser,fundraisers[toFundraiser].donatedBy[i].donorAddress, address(this), certificateID);\n            certificateID += 1;\n            fundraisers[toFundraiser].donatedBy[i].certificatesSent += 1;\n            donorList.push(fundraisers[toFundraiser].donatedBy[i]);\n        }\n    }\n    \n    // unrregister the fundraiser once the goal amount is reached\n    function unRegister(address requestedBy) onlyOwner public {\n        require(fundraisers[requestedBy].isActive = true, \"Fundraiser is Inactive\");\n        fundraisers[requestedBy].isActive = false;\n    }\n\n    // get the fundraiser details\n    function getFundraiserDetails() view public onlyFundraiser returns(Donor[] memory fundraiserAmount) {\n        fundraiserAmount = fundraisers[msg.sender].donatedBy;\n    }\n\n    // Check total certificates issued till now\n    function totalCertificatesIssued() public view returns(uint totalCertificateCount) {\n        totalCertificateCount = donorList.length;\n    }\n\n}",
  "sourcePath": "C:\\Users\\ruthi\\Desktop\\New folder\\contracts\\Donation.sol",
  "compiler": {
    "name": "solc",
    "version": "0.8.19+commit.7dd6d404.Emscripten.clang"
  },
  "schemaVersion": "3.4.13",
  "updatedAt": "2023-05-06T08:38:02.647Z",
  "networkType": "ethereum",
  "devdoc": {
    "kind": "dev",
    "methods": {},
    "version": 1
  },
  "userdoc": {
    "kind": "user",
    "methods": {},
    "version": 1
  }
}